{
  "_format": "hh-sol-artifact-1",
  "contractName": "NFTMarketplace",
  "sourceName": "contracts/NFTMarketplace.sol",
  "abi": [
    {
      "anonymous": false,
      "inputs": [
        {
          "indexed": true,
          "internalType": "address",
          "name": "owner",
          "type": "address"
        },
        {
          "indexed": true,
          "internalType": "address",
          "name": "approved",
          "type": "address"
        },
        {
          "indexed": true,
          "internalType": "uint256",
          "name": "tokenId",
          "type": "uint256"
        }
      ],
      "name": "Approval",
      "type": "event"
    },
    {
      "anonymous": false,
      "inputs": [
        {
          "indexed": true,
          "internalType": "address",
          "name": "owner",
          "type": "address"
        },
        {
          "indexed": true,
          "internalType": "address",
          "name": "operator",
          "type": "address"
        },
        {
          "indexed": false,
          "internalType": "bool",
          "name": "approved",
          "type": "bool"
        }
      ],
      "name": "ApprovalForAll",
      "type": "event"
    },
    {
      "anonymous": false,
      "inputs": [
        {
          "indexed": false,
          "internalType": "uint256",
          "name": "_fromTokenId",
          "type": "uint256"
        },
        {
          "indexed": false,
          "internalType": "uint256",
          "name": "_toTokenId",
          "type": "uint256"
        }
      ],
      "name": "BatchMetadataUpdate",
      "type": "event"
    },
    {
      "anonymous": false,
      "inputs": [
        {
          "indexed": false,
          "internalType": "uint8",
          "name": "version",
          "type": "uint8"
        }
      ],
      "name": "Initialized",
      "type": "event"
    },
    {
      "anonymous": false,
      "inputs": [
        {
          "indexed": true,
          "internalType": "uint256",
          "name": "tokenId",
          "type": "uint256"
        },
        {
          "indexed": false,
          "internalType": "string",
          "name": "tokenURI",
          "type": "string"
        },
        {
          "indexed": false,
          "internalType": "address",
          "name": "collectionAddress",
          "type": "address"
        },
        {
          "indexed": false,
          "internalType": "address",
          "name": "seller",
          "type": "address"
        },
        {
          "indexed": false,
          "internalType": "address",
          "name": "owner",
          "type": "address"
        },
        {
          "indexed": false,
          "internalType": "uint256",
          "name": "price",
          "type": "uint256"
        },
        {
          "indexed": false,
          "internalType": "bool",
          "name": "sold",
          "type": "bool"
        }
      ],
      "name": "MarketItemCreated",
      "type": "event"
    },
    {
      "anonymous": false,
      "inputs": [
        {
          "indexed": false,
          "internalType": "uint256",
          "name": "_tokenId",
          "type": "uint256"
        }
      ],
      "name": "MetadataUpdate",
      "type": "event"
    },
    {
      "anonymous": false,
      "inputs": [
        {
          "indexed": true,
          "internalType": "uint256",
          "name": "tokenId",
          "type": "uint256"
        },
        {
          "indexed": false,
          "internalType": "uint256",
          "name": "startingBid",
          "type": "uint256"
        },
        {
          "indexed": false,
          "internalType": "uint256",
          "name": "endTime",
          "type": "uint256"
        }
      ],
      "name": "NFTAuctionListed",
      "type": "event"
    },
    {
      "anonymous": false,
      "inputs": [
        {
          "indexed": true,
          "internalType": "address",
          "name": "previousOwner",
          "type": "address"
        },
        {
          "indexed": true,
          "internalType": "address",
          "name": "newOwner",
          "type": "address"
        }
      ],
      "name": "OwnershipTransferred",
      "type": "event"
    },
    {
      "anonymous": false,
      "inputs": [
        {
          "indexed": true,
          "internalType": "address",
          "name": "owner",
          "type": "address"
        },
        {
          "indexed": true,
          "internalType": "uint256",
          "name": "tokenId",
          "type": "uint256"
        },
        {
          "indexed": false,
          "internalType": "string",
          "name": "tokenURI",
          "type": "string"
        },
        {
          "indexed": false,
          "internalType": "address",
          "name": "collectionAddress",
          "type": "address"
        }
      ],
      "name": "TokenCreated",
      "type": "event"
    },
    {
      "anonymous": false,
      "inputs": [
        {
          "indexed": true,
          "internalType": "address",
          "name": "from",
          "type": "address"
        },
        {
          "indexed": true,
          "internalType": "address",
          "name": "to",
          "type": "address"
        },
        {
          "indexed": true,
          "internalType": "uint256",
          "name": "tokenId",
          "type": "uint256"
        }
      ],
      "name": "Transfer",
      "type": "event"
    },
    {
      "inputs": [],
      "name": "_allBids",
      "outputs": [
        {
          "internalType": "uint256",
          "name": "",
          "type": "uint256"
        }
      ],
      "stateMutability": "view",
      "type": "function"
    },
    {
      "inputs": [],
      "name": "_auctions",
      "outputs": [
        {
          "internalType": "uint256",
          "name": "",
          "type": "uint256"
        }
      ],
      "stateMutability": "view",
      "type": "function"
    },
    {
      "inputs": [],
      "name": "_fixedListings",
      "outputs": [
        {
          "internalType": "uint256",
          "name": "",
          "type": "uint256"
        }
      ],
      "stateMutability": "view",
      "type": "function"
    },
    {
      "inputs": [
        {
          "internalType": "address",
          "name": "to",
          "type": "address"
        },
        {
          "internalType": "uint256",
          "name": "tokenId",
          "type": "uint256"
        }
      ],
      "name": "approve",
      "outputs": [],
      "stateMutability": "nonpayable",
      "type": "function"
    },
    {
      "inputs": [
        {
          "internalType": "uint256",
          "name": "",
          "type": "uint256"
        }
      ],
      "name": "auctionListings",
      "outputs": [
        {
          "internalType": "address",
          "name": "collectionAddress",
          "type": "address"
        },
        {
          "internalType": "uint256",
          "name": "tokenId",
          "type": "uint256"
        },
        {
          "internalType": "uint256",
          "name": "highestBid",
          "type": "uint256"
        },
        {
          "internalType": "address",
          "name": "highestBidder",
          "type": "address"
        },
        {
          "internalType": "uint256",
          "name": "endTime",
          "type": "uint256"
        },
        {
          "internalType": "address",
          "name": "owner",
          "type": "address"
        },
        {
          "internalType": "bool",
          "name": "active",
          "type": "bool"
        },
        {
          "internalType": "uint256",
          "name": "totalBids",
          "type": "uint256"
        }
      ],
      "stateMutability": "view",
      "type": "function"
    },
    {
      "inputs": [
        {
          "internalType": "address",
          "name": "owner",
          "type": "address"
        }
      ],
      "name": "balanceOf",
      "outputs": [
        {
          "internalType": "uint256",
          "name": "",
          "type": "uint256"
        }
      ],
      "stateMutability": "view",
      "type": "function"
    },
    {
      "inputs": [
        {
          "internalType": "string",
          "name": "_tokenURI",
          "type": "string"
        },
        {
          "internalType": "uint256",
          "name": "_price",
          "type": "uint256"
        },
        {
          "internalType": "address",
          "name": "collectionAddress",
          "type": "address"
        }
      ],
      "name": "createToken",
      "outputs": [
        {
          "internalType": "uint256",
          "name": "",
          "type": "uint256"
        }
      ],
      "stateMutability": "payable",
      "type": "function"
    },
    {
      "inputs": [
        {
          "internalType": "uint256",
          "name": "tokenId",
          "type": "uint256"
        }
      ],
      "name": "getApproved",
      "outputs": [
        {
          "internalType": "address",
          "name": "",
          "type": "address"
        }
      ],
      "stateMutability": "view",
      "type": "function"
    },
    {
      "inputs": [
        {
          "internalType": "uint256",
          "name": "tokenId",
          "type": "uint256"
        }
      ],
      "name": "getMarketItem",
      "outputs": [
        {
          "components": [
            {
              "internalType": "uint256",
              "name": "tokenId",
              "type": "uint256"
            },
            {
              "internalType": "string",
              "name": "tokenURI",
              "type": "string"
            },
            {
              "internalType": "address",
              "name": "collectionAddress",
              "type": "address"
            },
            {
              "internalType": "address payable",
              "name": "seller",
              "type": "address"
            },
            {
              "internalType": "address payable",
              "name": "owner",
              "type": "address"
            },
            {
              "internalType": "uint256",
              "name": "price",
              "type": "uint256"
            },
            {
              "internalType": "bool",
              "name": "sold",
              "type": "bool"
            }
          ],
          "internalType": "struct NFTMarketplace.MarketItem",
          "name": "",
          "type": "tuple"
        }
      ],
      "stateMutability": "view",
      "type": "function"
    },
    {
      "inputs": [
        {
          "internalType": "address",
          "name": "owner",
          "type": "address"
        }
      ],
      "name": "getMarketItems",
      "outputs": [
        {
          "components": [
            {
              "internalType": "uint256",
              "name": "tokenId",
              "type": "uint256"
            },
            {
              "internalType": "string",
              "name": "tokenURI",
              "type": "string"
            },
            {
              "internalType": "address",
              "name": "collectionAddress",
              "type": "address"
            },
            {
              "internalType": "address payable",
              "name": "seller",
              "type": "address"
            },
            {
              "internalType": "address payable",
              "name": "owner",
              "type": "address"
            },
            {
              "internalType": "uint256",
              "name": "price",
              "type": "uint256"
            },
            {
              "internalType": "bool",
              "name": "sold",
              "type": "bool"
            }
          ],
          "internalType": "struct NFTMarketplace.MarketItem[]",
          "name": "",
          "type": "tuple[]"
        }
      ],
      "stateMutability": "view",
      "type": "function"
    },
    {
      "inputs": [],
      "name": "initialize",
      "outputs": [],
      "stateMutability": "nonpayable",
      "type": "function"
    },
    {
      "inputs": [
        {
          "internalType": "address",
          "name": "owner",
          "type": "address"
        },
        {
          "internalType": "address",
          "name": "operator",
          "type": "address"
        }
      ],
      "name": "isApprovedForAll",
      "outputs": [
        {
          "internalType": "bool",
          "name": "",
          "type": "bool"
        }
      ],
      "stateMutability": "view",
      "type": "function"
    },
    {
      "inputs": [],
      "name": "listingPrice",
      "outputs": [
        {
          "internalType": "uint256",
          "name": "",
          "type": "uint256"
        }
      ],
      "stateMutability": "view",
      "type": "function"
    },
    {
      "inputs": [],
      "name": "name",
      "outputs": [
        {
          "internalType": "string",
          "name": "",
          "type": "string"
        }
      ],
      "stateMutability": "view",
      "type": "function"
    },
    {
      "inputs": [],
      "name": "owner",
      "outputs": [
        {
          "internalType": "address",
          "name": "",
          "type": "address"
        }
      ],
      "stateMutability": "view",
      "type": "function"
    },
    {
      "inputs": [
        {
          "internalType": "uint256",
          "name": "tokenId",
          "type": "uint256"
        }
      ],
      "name": "ownerOf",
      "outputs": [
        {
          "internalType": "address",
          "name": "",
          "type": "address"
        }
      ],
      "stateMutability": "view",
      "type": "function"
    },
    {
      "inputs": [],
      "name": "renounceOwnership",
      "outputs": [],
      "stateMutability": "nonpayable",
      "type": "function"
    },
    {
      "inputs": [
        {
          "internalType": "address",
          "name": "from",
          "type": "address"
        },
        {
          "internalType": "address",
          "name": "to",
          "type": "address"
        },
        {
          "internalType": "uint256",
          "name": "tokenId",
          "type": "uint256"
        }
      ],
      "name": "safeTransferFrom",
      "outputs": [],
      "stateMutability": "nonpayable",
      "type": "function"
    },
    {
      "inputs": [
        {
          "internalType": "address",
          "name": "from",
          "type": "address"
        },
        {
          "internalType": "address",
          "name": "to",
          "type": "address"
        },
        {
          "internalType": "uint256",
          "name": "tokenId",
          "type": "uint256"
        },
        {
          "internalType": "bytes",
          "name": "data",
          "type": "bytes"
        }
      ],
      "name": "safeTransferFrom",
      "outputs": [],
      "stateMutability": "nonpayable",
      "type": "function"
    },
    {
      "inputs": [
        {
          "internalType": "address",
          "name": "operator",
          "type": "address"
        },
        {
          "internalType": "bool",
          "name": "approved",
          "type": "bool"
        }
      ],
      "name": "setApprovalForAll",
      "outputs": [],
      "stateMutability": "nonpayable",
      "type": "function"
    },
    {
      "inputs": [
        {
          "internalType": "bytes4",
          "name": "interfaceId",
          "type": "bytes4"
        }
      ],
      "name": "supportsInterface",
      "outputs": [
        {
          "internalType": "bool",
          "name": "",
          "type": "bool"
        }
      ],
      "stateMutability": "view",
      "type": "function"
    },
    {
      "inputs": [],
      "name": "symbol",
      "outputs": [
        {
          "internalType": "string",
          "name": "",
          "type": "string"
        }
      ],
      "stateMutability": "view",
      "type": "function"
    },
    {
      "inputs": [
        {
          "internalType": "uint256",
          "name": "tokenId",
          "type": "uint256"
        }
      ],
      "name": "tokenURI",
      "outputs": [
        {
          "internalType": "string",
          "name": "",
          "type": "string"
        }
      ],
      "stateMutability": "view",
      "type": "function"
    },
    {
      "inputs": [
        {
          "internalType": "address",
          "name": "from",
          "type": "address"
        },
        {
          "internalType": "address",
          "name": "to",
          "type": "address"
        },
        {
          "internalType": "uint256",
          "name": "tokenId",
          "type": "uint256"
        }
      ],
      "name": "transferFrom",
      "outputs": [],
      "stateMutability": "nonpayable",
      "type": "function"
    },
    {
      "inputs": [
        {
          "internalType": "address",
          "name": "newOwner",
          "type": "address"
        }
      ],
      "name": "transferOwnership",
      "outputs": [],
      "stateMutability": "nonpayable",
      "type": "function"
    },
    {
      "inputs": [
        {
          "internalType": "uint256",
          "name": "_listingPrice",
          "type": "uint256"
        }
      ],
      "name": "updateListingPrice",
      "outputs": [],
      "stateMutability": "payable",
      "type": "function"
    }
  ],
  "bytecode": "0x608060405234801561001057600080fd5b506140a1806100206000396000f3fe6080604052600436106101815760003560e01c8063715018a6116100d1578063b88d4fde1161008a578063c87b56dd11610064578063c87b56dd14610568578063d4423336146105a5578063e985e9c5146105e9578063f2fde38b1461062657610181565b8063b88d4fde146104d7578063c78f19f914610500578063c7be7a491461052b57610181565b8063715018a61461040e5780638129fc1c146104255780638da5cb5b1461043c57806395d89b4114610467578063a22cb46514610492578063ae677aa3146104bb57610181565b806323b872dd1161013e5780635128acda116101185780635128acda1461033e5780635aa97ffb146103695780636352211e1461039457806370a08231146103d157610181565b806323b872dd146102c157806326732b5a146102ea57806342842e0e1461031557610181565b806301ffc9a71461018657806306fdde03146101c3578063081812fc146101ee57806308e01d741461022b578063095ea7b3146102685780631542bb9514610291575b600080fd5b34801561019257600080fd5b506101ad60048036038101906101a8919061294e565b61064f565b6040516101ba9190612996565b60405180910390f35b3480156101cf57600080fd5b506101d86106b0565b6040516101e59190612a41565b60405180910390f35b3480156101fa57600080fd5b5061021560048036038101906102109190612a99565b610742565b6040516102229190612b07565b60405180910390f35b34801561023757600080fd5b50610252600480360381019061024d9190612b4e565b610788565b60405161025f9190612d71565b60405180910390f35b34801561027457600080fd5b5061028f600480360381019061028a9190612d93565b610b9b565b005b6102ab60048036038101906102a69190612f08565b610cb2565b6040516102b89190612f86565b60405180910390f35b3480156102cd57600080fd5b506102e860048036038101906102e39190612fa1565b610cf6565b005b3480156102f657600080fd5b506102ff610d56565b60405161030c9190612f86565b60405180910390f35b34801561032157600080fd5b5061033c60048036038101906103379190612fa1565b610d5d565b005b34801561034a57600080fd5b50610353610d7d565b6040516103609190612f86565b60405180910390f35b34801561037557600080fd5b5061037e610d84565b60405161038b9190612f86565b60405180910390f35b3480156103a057600080fd5b506103bb60048036038101906103b69190612a99565b610d8b565b6040516103c89190612b07565b60405180910390f35b3480156103dd57600080fd5b506103f860048036038101906103f39190612b4e565b610e11565b6040516104059190612f86565b60405180910390f35b34801561041a57600080fd5b50610423610ec8565b005b34801561043157600080fd5b5061043a610edc565b005b34801561044857600080fd5b5061045161101b565b60405161045e9190612b07565b60405180910390f35b34801561047357600080fd5b5061047c611045565b6040516104899190612a41565b60405180910390f35b34801561049e57600080fd5b506104b960048036038101906104b49190613020565b6110d7565b005b6104d560048036038101906104d09190612a99565b6110ed565b005b3480156104e357600080fd5b506104fe60048036038101906104f99190613101565b611100565b005b34801561050c57600080fd5b50610515611162565b6040516105229190612f86565b60405180910390f35b34801561053757600080fd5b50610552600480360381019061054d9190612a99565b611169565b60405161055f9190613220565b60405180910390f35b34801561057457600080fd5b5061058f600480360381019061058a9190612a99565b61135a565b60405161059c9190612a41565b60405180910390f35b3480156105b157600080fd5b506105cc60048036038101906105c79190612a99565b61146c565b6040516105e0989796959493929190613242565b60405180910390f35b3480156105f557600080fd5b50610610600480360381019061060b91906132c0565b611522565b60405161061d9190612996565b60405180910390f35b34801561063257600080fd5b5061064d60048036038101906106489190612b4e565b6115b6565b005b6000634906490660e01b7bffffffffffffffffffffffffffffffffffffffffffffffffffffffff1916827bffffffffffffffffffffffffffffffffffffffffffffffffffffffff191614806106a957506106a882611639565b5b9050919050565b606060c980546106bf9061332f565b80601f01602080910402602001604051908101604052809291908181526020018280546106eb9061332f565b80156107385780601f1061070d57610100808354040283529160200191610738565b820191906000526020600020905b81548152906001019060200180831161071b57829003601f168201915b5050505050905090565b600061074d8261171b565b60cd600083815260200190815260200160002060009054906101000a900473ffffffffffffffffffffffffffffffffffffffff169050919050565b6060600080600190505b61012d54811161086057600073ffffffffffffffffffffffffffffffffffffffff168473ffffffffffffffffffffffffffffffffffffffff16148061083957508373ffffffffffffffffffffffffffffffffffffffff16610133600083815260200190815260200160002060040160009054906101000a900473ffffffffffffffffffffffffffffffffffffffff1673ffffffffffffffffffffffffffffffffffffffff16145b1561084d5781806108499061338f565b9250505b80806108589061338f565b915050610792565b5060008167ffffffffffffffff81111561087d5761087c612ddd565b5b6040519080825280602002602001820160405280156108b657816020015b6108a3612861565b81526020019060019003908161089b5790505b509050600080600190505b61012d548111610b8f57600073ffffffffffffffffffffffffffffffffffffffff168673ffffffffffffffffffffffffffffffffffffffff16148061096857508573ffffffffffffffffffffffffffffffffffffffff16610133600083815260200190815260200160002060040160009054906101000a900473ffffffffffffffffffffffffffffffffffffffff1673ffffffffffffffffffffffffffffffffffffffff16145b15610b7c5761013360008281526020019081526020016000206040518060e0016040529081600082015481526020016001820180546109a69061332f565b80601f01602080910402602001604051908101604052809291908181526020018280546109d29061332f565b8015610a1f5780601f106109f457610100808354040283529160200191610a1f565b820191906000526020600020905b815481529060010190602001808311610a0257829003601f168201915b505050505081526020016002820160009054906101000a900473ffffffffffffffffffffffffffffffffffffffff1673ffffffffffffffffffffffffffffffffffffffff1673ffffffffffffffffffffffffffffffffffffffff1681526020016003820160009054906101000a900473ffffffffffffffffffffffffffffffffffffffff1673ffffffffffffffffffffffffffffffffffffffff1673ffffffffffffffffffffffffffffffffffffffff1681526020016004820160009054906101000a900473ffffffffffffffffffffffffffffffffffffffff1673ffffffffffffffffffffffffffffffffffffffff1673ffffffffffffffffffffffffffffffffffffffff168152602001600582015481526020016006820160009054906101000a900460ff161515151581525050838381518110610b6257610b616133d7565b5b60200260200101819052508180610b789061338f565b9250505b8080610b879061338f565b9150506108c1565b50819350505050919050565b6000610ba682610d8b565b90508073ffffffffffffffffffffffffffffffffffffffff168373ffffffffffffffffffffffffffffffffffffffff1603610c16576040517f08c379a0000000000000000000000000000000000000000000000000000000008152600401610c0d90613478565b60405180910390fd5b8073ffffffffffffffffffffffffffffffffffffffff16610c35611766565b73ffffffffffffffffffffffffffffffffffffffff161480610c645750610c6381610c5e611766565b611522565b5b610ca3576040517f08c379a0000000000000000000000000000000000000000000000000000000008152600401610c9a9061350a565b60405180910390fd5b610cad838361176e565b505050565b600061012d6000815480929190610cc89061338f565b9190505550600061012d549050610cdf3382611827565b610ceb81858588611a44565b809150509392505050565b610d07610d01611766565b82611c89565b610d46576040517f08c379a0000000000000000000000000000000000000000000000000000000008152600401610d3d9061359c565b60405180910390fd5b610d51838383611d1e565b505050565b61012f5481565b610d7883838360405180602001604052806000815250611100565b505050565b6101305481565b6101315481565b600080610d9783612017565b9050600073ffffffffffffffffffffffffffffffffffffffff168173ffffffffffffffffffffffffffffffffffffffff1603610e08576040517f08c379a0000000000000000000000000000000000000000000000000000000008152600401610dff90613608565b60405180910390fd5b80915050919050565b60008073ffffffffffffffffffffffffffffffffffffffff168273ffffffffffffffffffffffffffffffffffffffff1603610e81576040517f08c379a0000000000000000000000000000000000000000000000000000000008152600401610e789061369a565b60405180910390fd5b60cc60008373ffffffffffffffffffffffffffffffffffffffff1673ffffffffffffffffffffffffffffffffffffffff168152602001908152602001600020549050919050565b610ed0612054565b610eda60006120d2565b565b60008060019054906101000a900460ff16159050808015610f0d5750600160008054906101000a900460ff1660ff16105b80610f3a5750610f1c30612198565b158015610f395750600160008054906101000a900460ff1660ff16145b5b610f79576040517f08c379a0000000000000000000000000000000000000000000000000000000008152600401610f709061372c565b60405180910390fd5b60016000806101000a81548160ff021916908360ff1602179055508015610fb6576001600060016101000a81548160ff0219169083151502179055505b60006101328190555080156110185760008060016101000a81548160ff0219169083151502179055507f7f26b83ff96e1f2b6a682f133852f6798a09c465da95921460cefb3847402498600160405161100f919061379e565b60405180910390a15b50565b6000603360009054906101000a900473ffffffffffffffffffffffffffffffffffffffff16905090565b606060ca80546110549061332f565b80601f01602080910402602001604051908101604052809291908181526020018280546110809061332f565b80156110cd5780601f106110a2576101008083540402835291602001916110cd565b820191906000526020600020905b8154815290600101906020018083116110b057829003601f168201915b5050505050905090565b6110e96110e2611766565b83836121bb565b5050565b6110f5612054565b806101328190555050565b61111161110b611766565b83611c89565b611150576040517f08c379a00000000000000000000000000000000000000000000000000000000081526004016111479061359c565b60405180910390fd5b61115c84848484612327565b50505050565b6101325481565b611171612861565b61013360008381526020019081526020016000206040518060e0016040529081600082015481526020016001820180546111aa9061332f565b80601f01602080910402602001604051908101604052809291908181526020018280546111d69061332f565b80156112235780601f106111f857610100808354040283529160200191611223565b820191906000526020600020905b81548152906001019060200180831161120657829003601f168201915b505050505081526020016002820160009054906101000a900473ffffffffffffffffffffffffffffffffffffffff1673ffffffffffffffffffffffffffffffffffffffff1673ffffffffffffffffffffffffffffffffffffffff1681526020016003820160009054906101000a900473ffffffffffffffffffffffffffffffffffffffff1673ffffffffffffffffffffffffffffffffffffffff1673ffffffffffffffffffffffffffffffffffffffff1681526020016004820160009054906101000a900473ffffffffffffffffffffffffffffffffffffffff1673ffffffffffffffffffffffffffffffffffffffff1673ffffffffffffffffffffffffffffffffffffffff168152602001600582015481526020016006820160009054906101000a900460ff1615151515815250509050919050565b60606113658261171b565b600060fb600084815260200190815260200160002080546113859061332f565b80601f01602080910402602001604051908101604052809291908181526020018280546113b19061332f565b80156113fe5780601f106113d3576101008083540402835291602001916113fe565b820191906000526020600020905b8154815290600101906020018083116113e157829003601f168201915b50505050509050600061140f612383565b90506000815103611424578192505050611467565b6000825111156114595780826040516020016114419291906137f5565b60405160208183030381529060405292505050611467565b6114628461239a565b925050505b919050565b6101346020528060005260406000206000915090508060000160009054906101000a900473ffffffffffffffffffffffffffffffffffffffff16908060010154908060020154908060030160009054906101000a900473ffffffffffffffffffffffffffffffffffffffff16908060040154908060050160009054906101000a900473ffffffffffffffffffffffffffffffffffffffff16908060050160149054906101000a900460ff16908060070154905088565b600060ce60008473ffffffffffffffffffffffffffffffffffffffff1673ffffffffffffffffffffffffffffffffffffffff16815260200190815260200160002060008373ffffffffffffffffffffffffffffffffffffffff1673ffffffffffffffffffffffffffffffffffffffff16815260200190815260200160002060009054906101000a900460ff16905092915050565b6115be612054565b600073ffffffffffffffffffffffffffffffffffffffff168173ffffffffffffffffffffffffffffffffffffffff160361162d576040517f08c379a00000000000000000000000000000000000000000000000000000000081526004016116249061388b565b60405180910390fd5b611636816120d2565b50565b60007f80ac58cd000000000000000000000000000000000000000000000000000000007bffffffffffffffffffffffffffffffffffffffffffffffffffffffff1916827bffffffffffffffffffffffffffffffffffffffffffffffffffffffff1916148061170457507f5b5e139f000000000000000000000000000000000000000000000000000000007bffffffffffffffffffffffffffffffffffffffffffffffffffffffff1916827bffffffffffffffffffffffffffffffffffffffffffffffffffffffff1916145b80611714575061171382612402565b5b9050919050565b6117248161246c565b611763576040517f08c379a000000000000000000000000000000000000000000000000000000000815260040161175a90613608565b60405180910390fd5b50565b600033905090565b8160cd600083815260200190815260200160002060006101000a81548173ffffffffffffffffffffffffffffffffffffffff021916908373ffffffffffffffffffffffffffffffffffffffff160217905550808273ffffffffffffffffffffffffffffffffffffffff166117e183610d8b565b73ffffffffffffffffffffffffffffffffffffffff167f8c5be1e5ebec7d5bd14f71427d1e84f3dd0314c0f7b2291e5b200ac8c7c3b92560405160405180910390a45050565b600073ffffffffffffffffffffffffffffffffffffffff168273ffffffffffffffffffffffffffffffffffffffff1603611896576040517f08c379a000000000000000000000000000000000000000000000000000000000815260040161188d906138f7565b60405180910390fd5b61189f8161246c565b156118df576040517f08c379a00000000000000000000000000000000000000000000000000000000081526004016118d690613963565b60405180910390fd5b6118ed6000838360016124ad565b6118f68161246c565b15611936576040517f08c379a000000000000000000000000000000000000000000000000000000000815260040161192d90613963565b60405180910390fd5b600160cc60008473ffffffffffffffffffffffffffffffffffffffff1673ffffffffffffffffffffffffffffffffffffffff168152602001908152602001600020600082825401925050819055508160cb600083815260200190815260200160002060006101000a81548173ffffffffffffffffffffffffffffffffffffffff021916908373ffffffffffffffffffffffffffffffffffffffff160217905550808273ffffffffffffffffffffffffffffffffffffffff16600073ffffffffffffffffffffffffffffffffffffffff167fddf252ad1be2c89b69c2b068fc378daa952ba7f163c4a11628f55a4df523b3ef60405160405180910390a4611a406000838360016124b3565b5050565b60008311611a87576040517f08c379a0000000000000000000000000000000000000000000000000000000008152600401611a7e906139cf565b60405180910390fd5b6040518060e001604052808581526020018281526020018373ffffffffffffffffffffffffffffffffffffffff1681526020013373ffffffffffffffffffffffffffffffffffffffff1681526020013073ffffffffffffffffffffffffffffffffffffffff168152602001848152602001600015158152506101336000868152602001908152602001600020600082015181600001556020820151816001019081611b329190613b91565b5060408201518160020160006101000a81548173ffffffffffffffffffffffffffffffffffffffff021916908373ffffffffffffffffffffffffffffffffffffffff16021790555060608201518160030160006101000a81548173ffffffffffffffffffffffffffffffffffffffff021916908373ffffffffffffffffffffffffffffffffffffffff16021790555060808201518160040160006101000a81548173ffffffffffffffffffffffffffffffffffffffff021916908373ffffffffffffffffffffffffffffffffffffffff16021790555060a0820151816005015560c08201518160060160006101000a81548160ff021916908315150217905550905050611c40333086611d1e565b837fb28bb3ccb8ca0fb2a5b52dd04f112ac9c85ca173de76350e28a45e04dd02ec9582843330886000604051611c7b96959493929190613c63565b60405180910390a250505050565b600080611c9583610d8b565b90508073ffffffffffffffffffffffffffffffffffffffff168473ffffffffffffffffffffffffffffffffffffffff161480611cd75750611cd68185611522565b5b80611d1557508373ffffffffffffffffffffffffffffffffffffffff16611cfd84610742565b73ffffffffffffffffffffffffffffffffffffffff16145b91505092915050565b8273ffffffffffffffffffffffffffffffffffffffff16611d3e82610d8b565b73ffffffffffffffffffffffffffffffffffffffff1614611d94576040517f08c379a0000000000000000000000000000000000000000000000000000000008152600401611d8b90613d3d565b60405180910390fd5b600073ffffffffffffffffffffffffffffffffffffffff168273ffffffffffffffffffffffffffffffffffffffff1603611e03576040517f08c379a0000000000000000000000000000000000000000000000000000000008152600401611dfa90613dcf565b60405180910390fd5b611e1083838360016124ad565b8273ffffffffffffffffffffffffffffffffffffffff16611e3082610d8b565b73ffffffffffffffffffffffffffffffffffffffff1614611e86576040517f08c379a0000000000000000000000000000000000000000000000000000000008152600401611e7d90613d3d565b60405180910390fd5b60cd600082815260200190815260200160002060006101000a81549073ffffffffffffffffffffffffffffffffffffffff0219169055600160cc60008573ffffffffffffffffffffffffffffffffffffffff1673ffffffffffffffffffffffffffffffffffffffff16815260200190815260200160002060008282540392505081905550600160cc60008473ffffffffffffffffffffffffffffffffffffffff1673ffffffffffffffffffffffffffffffffffffffff168152602001908152602001600020600082825401925050819055508160cb600083815260200190815260200160002060006101000a81548173ffffffffffffffffffffffffffffffffffffffff021916908373ffffffffffffffffffffffffffffffffffffffff160217905550808273ffffffffffffffffffffffffffffffffffffffff168473ffffffffffffffffffffffffffffffffffffffff167fddf252ad1be2c89b69c2b068fc378daa952ba7f163c4a11628f55a4df523b3ef60405160405180910390a461201283838360016124b3565b505050565b600060cb600083815260200190815260200160002060009054906101000a900473ffffffffffffffffffffffffffffffffffffffff169050919050565b61205c611766565b73ffffffffffffffffffffffffffffffffffffffff1661207a61101b565b73ffffffffffffffffffffffffffffffffffffffff16146120d0576040517f08c379a00000000000000000000000000000000000000000000000000000000081526004016120c790613e3b565b60405180910390fd5b565b6000603360009054906101000a900473ffffffffffffffffffffffffffffffffffffffff16905081603360006101000a81548173ffffffffffffffffffffffffffffffffffffffff021916908373ffffffffffffffffffffffffffffffffffffffff1602179055508173ffffffffffffffffffffffffffffffffffffffff168173ffffffffffffffffffffffffffffffffffffffff167f8be0079c531659141344cd1fd0a4f28419497f9722a3daafe3b4186f6b6457e060405160405180910390a35050565b6000808273ffffffffffffffffffffffffffffffffffffffff163b119050919050565b8173ffffffffffffffffffffffffffffffffffffffff168373ffffffffffffffffffffffffffffffffffffffff1603612229576040517f08c379a000000000000000000000000000000000000000000000000000000000815260040161222090613ea7565b60405180910390fd5b8060ce60008573ffffffffffffffffffffffffffffffffffffffff1673ffffffffffffffffffffffffffffffffffffffff16815260200190815260200160002060008473ffffffffffffffffffffffffffffffffffffffff1673ffffffffffffffffffffffffffffffffffffffff16815260200190815260200160002060006101000a81548160ff0219169083151502179055508173ffffffffffffffffffffffffffffffffffffffff168373ffffffffffffffffffffffffffffffffffffffff167f17307eab39ab6107e8899845ad3d59bd9653f200f220920489ca2b5937696c318360405161231a9190612996565b60405180910390a3505050565b612332848484611d1e565b61233e848484846124b9565b61237d576040517f08c379a000000000000000000000000000000000000000000000000000000000815260040161237490613f39565b60405180910390fd5b50505050565b606060405180602001604052806000815250905090565b60606123a58261171b565b60006123af612383565b905060008151116123cf57604051806020016040528060008152506123fa565b806123d984612640565b6040516020016123ea9291906137f5565b6040516020818303038152906040525b915050919050565b60007f01ffc9a7000000000000000000000000000000000000000000000000000000007bffffffffffffffffffffffffffffffffffffffffffffffffffffffff1916827bffffffffffffffffffffffffffffffffffffffffffffffffffffffff1916149050919050565b60008073ffffffffffffffffffffffffffffffffffffffff1661248e83612017565b73ffffffffffffffffffffffffffffffffffffffff1614159050919050565b50505050565b50505050565b60006124da8473ffffffffffffffffffffffffffffffffffffffff16612198565b15612633578373ffffffffffffffffffffffffffffffffffffffff1663150b7a02612503611766565b8786866040518563ffffffff1660e01b81526004016125259493929190613fae565b6020604051808303816000875af192505050801561256157506040513d601f19601f8201168201806040525081019061255e919061400f565b60015b6125e3573d8060008114612591576040519150601f19603f3d011682016040523d82523d6000602084013e612596565b606091505b5060008151036125db576040517f08c379a00000000000000000000000000000000000000000000000000000000081526004016125d290613f39565b60405180910390fd5b805181602001fd5b63150b7a0260e01b7bffffffffffffffffffffffffffffffffffffffffffffffffffffffff1916817bffffffffffffffffffffffffffffffffffffffffffffffffffffffff191614915050612638565b600190505b949350505050565b60606000600161264f8461270e565b01905060008167ffffffffffffffff81111561266e5761266d612ddd565b5b6040519080825280601f01601f1916602001820160405280156126a05781602001600182028036833780820191505090505b509050600082602001820190505b600115612703578080600190039150507f3031323334353637383961626364656600000000000000000000000000000000600a86061a8153600a85816126f7576126f661403c565b5b049450600085036126ae575b819350505050919050565b600080600090507a184f03e93ff9f4daa797ed6e38ed64bf6a1f010000000000000000831061276c577a184f03e93ff9f4daa797ed6e38ed64bf6a1f01000000000000000083816127625761276161403c565b5b0492506040810190505b6d04ee2d6d415b85acef810000000083106127a9576d04ee2d6d415b85acef8100000000838161279f5761279e61403c565b5b0492506020810190505b662386f26fc1000083106127d857662386f26fc1000083816127ce576127cd61403c565b5b0492506010810190505b6305f5e1008310612801576305f5e10083816127f7576127f661403c565b5b0492506008810190505b612710831061282657612710838161281c5761281b61403c565b5b0492506004810190505b60648310612849576064838161283f5761283e61403c565b5b0492506002810190505b600a8310612858576001810190505b80915050919050565b6040518060e001604052806000815260200160608152602001600073ffffffffffffffffffffffffffffffffffffffff168152602001600073ffffffffffffffffffffffffffffffffffffffff168152602001600073ffffffffffffffffffffffffffffffffffffffff168152602001600081526020016000151581525090565b6000604051905090565b600080fd5b600080fd5b60007fffffffff0000000000000000000000000000000000000000000000000000000082169050919050565b61292b816128f6565b811461293657600080fd5b50565b60008135905061294881612922565b92915050565b600060208284031215612964576129636128ec565b5b600061297284828501612939565b91505092915050565b60008115159050919050565b6129908161297b565b82525050565b60006020820190506129ab6000830184612987565b92915050565b600081519050919050565b600082825260208201905092915050565b60005b838110156129eb5780820151818401526020810190506129d0565b60008484015250505050565b6000601f19601f8301169050919050565b6000612a13826129b1565b612a1d81856129bc565b9350612a2d8185602086016129cd565b612a36816129f7565b840191505092915050565b60006020820190508181036000830152612a5b8184612a08565b905092915050565b6000819050919050565b612a7681612a63565b8114612a8157600080fd5b50565b600081359050612a9381612a6d565b92915050565b600060208284031215612aaf57612aae6128ec565b5b6000612abd84828501612a84565b91505092915050565b600073ffffffffffffffffffffffffffffffffffffffff82169050919050565b6000612af182612ac6565b9050919050565b612b0181612ae6565b82525050565b6000602082019050612b1c6000830184612af8565b92915050565b612b2b81612ae6565b8114612b3657600080fd5b50565b600081359050612b4881612b22565b92915050565b600060208284031215612b6457612b636128ec565b5b6000612b7284828501612b39565b91505092915050565b600081519050919050565b600082825260208201905092915050565b6000819050602082019050919050565b612bb081612a63565b82525050565b600082825260208201905092915050565b6000612bd2826129b1565b612bdc8185612bb6565b9350612bec8185602086016129cd565b612bf5816129f7565b840191505092915050565b612c0981612ae6565b82525050565b6000612c1a82612ac6565b9050919050565b612c2a81612c0f565b82525050565b612c398161297b565b82525050565b600060e083016000830151612c576000860182612ba7565b5060208301518482036020860152612c6f8282612bc7565b9150506040830151612c846040860182612c00565b506060830151612c976060860182612c21565b506080830151612caa6080860182612c21565b5060a0830151612cbd60a0860182612ba7565b5060c0830151612cd060c0860182612c30565b508091505092915050565b6000612ce78383612c3f565b905092915050565b6000602082019050919050565b6000612d0782612b7b565b612d118185612b86565b935083602082028501612d2385612b97565b8060005b85811015612d5f5784840389528151612d408582612cdb565b9450612d4b83612cef565b925060208a01995050600181019050612d27565b50829750879550505050505092915050565b60006020820190508181036000830152612d8b8184612cfc565b905092915050565b60008060408385031215612daa57612da96128ec565b5b6000612db885828601612b39565b9250506020612dc985828601612a84565b9150509250929050565b600080fd5b600080fd5b7f4e487b7100000000000000000000000000000000000000000000000000000000600052604160045260246000fd5b612e15826129f7565b810181811067ffffffffffffffff82111715612e3457612e33612ddd565b5b80604052505050565b6000612e476128e2565b9050612e538282612e0c565b919050565b600067ffffffffffffffff821115612e7357612e72612ddd565b5b612e7c826129f7565b9050602081019050919050565b82818337600083830152505050565b6000612eab612ea684612e58565b612e3d565b905082815260208101848484011115612ec757612ec6612dd8565b5b612ed2848285612e89565b509392505050565b600082601f830112612eef57612eee612dd3565b5b8135612eff848260208601612e98565b91505092915050565b600080600060608486031215612f2157612f206128ec565b5b600084013567ffffffffffffffff811115612f3f57612f3e6128f1565b5b612f4b86828701612eda565b9350506020612f5c86828701612a84565b9250506040612f6d86828701612b39565b9150509250925092565b612f8081612a63565b82525050565b6000602082019050612f9b6000830184612f77565b92915050565b600080600060608486031215612fba57612fb96128ec565b5b6000612fc886828701612b39565b9350506020612fd986828701612b39565b9250506040612fea86828701612a84565b9150509250925092565b612ffd8161297b565b811461300857600080fd5b50565b60008135905061301a81612ff4565b92915050565b60008060408385031215613037576130366128ec565b5b600061304585828601612b39565b92505060206130568582860161300b565b9150509250929050565b600067ffffffffffffffff82111561307b5761307a612ddd565b5b613084826129f7565b9050602081019050919050565b60006130a461309f84613060565b612e3d565b9050828152602081018484840111156130c0576130bf612dd8565b5b6130cb848285612e89565b509392505050565b600082601f8301126130e8576130e7612dd3565b5b81356130f8848260208601613091565b91505092915050565b6000806000806080858703121561311b5761311a6128ec565b5b600061312987828801612b39565b945050602061313a87828801612b39565b935050604061314b87828801612a84565b925050606085013567ffffffffffffffff81111561316c5761316b6128f1565b5b613178878288016130d3565b91505092959194509250565b600060e08301600083015161319c6000860182612ba7565b50602083015184820360208601526131b48282612bc7565b91505060408301516131c96040860182612c00565b5060608301516131dc6060860182612c21565b5060808301516131ef6080860182612c21565b5060a083015161320260a0860182612ba7565b5060c083015161321560c0860182612c30565b508091505092915050565b6000602082019050818103600083015261323a8184613184565b905092915050565b600061010082019050613258600083018b612af8565b613265602083018a612f77565b6132726040830189612f77565b61327f6060830188612af8565b61328c6080830187612f77565b61329960a0830186612af8565b6132a660c0830185612987565b6132b360e0830184612f77565b9998505050505050505050565b600080604083850312156132d7576132d66128ec565b5b60006132e585828601612b39565b92505060206132f685828601612b39565b9150509250929050565b7f4e487b7100000000000000000000000000000000000000000000000000000000600052602260045260246000fd5b6000600282049050600182168061334757607f821691505b60208210810361335a57613359613300565b5b50919050565b7f4e487b7100000000000000000000000000000000000000000000000000000000600052601160045260246000fd5b600061339a82612a63565b91507fffffffffffffffffffffffffffffffffffffffffffffffffffffffffffffffff82036133cc576133cb613360565b5b600182019050919050565b7f4e487b7100000000000000000000000000000000000000000000000000000000600052603260045260246000fd5b7f4552433732313a20617070726f76616c20746f2063757272656e74206f776e6560008201527f7200000000000000000000000000000000000000000000000000000000000000602082015250565b60006134626021836129bc565b915061346d82613406565b604082019050919050565b6000602082019050818103600083015261349181613455565b9050919050565b7f4552433732313a20617070726f76652063616c6c6572206973206e6f7420746f60008201527f6b656e206f776e6572206f7220617070726f76656420666f7220616c6c000000602082015250565b60006134f4603d836129bc565b91506134ff82613498565b604082019050919050565b60006020820190508181036000830152613523816134e7565b9050919050565b7f4552433732313a2063616c6c6572206973206e6f7420746f6b656e206f776e6560008201527f72206f7220617070726f76656400000000000000000000000000000000000000602082015250565b6000613586602d836129bc565b91506135918261352a565b604082019050919050565b600060208201905081810360008301526135b581613579565b9050919050565b7f4552433732313a20696e76616c696420746f6b656e2049440000000000000000600082015250565b60006135f26018836129bc565b91506135fd826135bc565b602082019050919050565b60006020820190508181036000830152613621816135e5565b9050919050565b7f4552433732313a2061646472657373207a65726f206973206e6f74206120766160008201527f6c6964206f776e65720000000000000000000000000000000000000000000000602082015250565b60006136846029836129bc565b915061368f82613628565b604082019050919050565b600060208201905081810360008301526136b381613677565b9050919050565b7f496e697469616c697a61626c653a20636f6e747261637420697320616c72656160008201527f647920696e697469616c697a6564000000000000000000000000000000000000602082015250565b6000613716602e836129bc565b9150613721826136ba565b604082019050919050565b6000602082019050818103600083015261374581613709565b9050919050565b6000819050919050565b600060ff82169050919050565b6000819050919050565b600061378861378361377e8461374c565b613763565b613756565b9050919050565b6137988161376d565b82525050565b60006020820190506137b3600083018461378f565b92915050565b600081905092915050565b60006137cf826129b1565b6137d981856137b9565b93506137e98185602086016129cd565b80840191505092915050565b600061380182856137c4565b915061380d82846137c4565b91508190509392505050565b7f4f776e61626c653a206e6577206f776e657220697320746865207a65726f206160008201527f6464726573730000000000000000000000000000000000000000000000000000602082015250565b60006138756026836129bc565b915061388082613819565b604082019050919050565b600060208201905081810360008301526138a481613868565b9050919050565b7f4552433732313a206d696e7420746f20746865207a65726f2061646472657373600082015250565b60006138e16020836129bc565b91506138ec826138ab565b602082019050919050565b60006020820190508181036000830152613910816138d4565b9050919050565b7f4552433732313a20746f6b656e20616c7265616479206d696e74656400000000600082015250565b600061394d601c836129bc565b915061395882613917565b602082019050919050565b6000602082019050818103600083015261397c81613940565b9050919050565b7f5072696365206d757374206265206174206c6561737420312077656900000000600082015250565b60006139b9601c836129bc565b91506139c482613983565b602082019050919050565b600060208201905081810360008301526139e8816139ac565b9050919050565b60008190508160005260206000209050919050565b60006020601f8301049050919050565b600082821b905092915050565b600060088302613a517fffffffffffffffffffffffffffffffffffffffffffffffffffffffffffffffff82613a14565b613a5b8683613a14565b95508019841693508086168417925050509392505050565b6000613a8e613a89613a8484612a63565b613763565b612a63565b9050919050565b6000819050919050565b613aa883613a73565b613abc613ab482613a95565b848454613a21565b825550505050565b600090565b613ad1613ac4565b613adc818484613a9f565b505050565b5b81811015613b0057613af5600082613ac9565b600181019050613ae2565b5050565b601f821115613b4557613b16816139ef565b613b1f84613a04565b81016020851015613b2e578190505b613b42613b3a85613a04565b830182613ae1565b50505b505050565b600082821c905092915050565b6000613b6860001984600802613b4a565b1980831691505092915050565b6000613b818383613b57565b9150826002028217905092915050565b613b9a826129b1565b67ffffffffffffffff811115613bb357613bb2612ddd565b5b613bbd825461332f565b613bc8828285613b04565b600060209050601f831160018114613bfb5760008415613be9578287015190505b613bf38582613b75565b865550613c5b565b601f198416613c09866139ef565b60005b82811015613c3157848901518255600182019150602085019450602081019050613c0c565b86831015613c4e5784890151613c4a601f891682613b57565b8355505b6001600288020188555050505b505050505050565b600060c0820190508181036000830152613c7d8189612a08565b9050613c8c6020830188612af8565b613c996040830187612af8565b613ca66060830186612af8565b613cb36080830185612f77565b613cc060a0830184612987565b979650505050505050565b7f4552433732313a207472616e736665722066726f6d20696e636f72726563742060008201527f6f776e6572000000000000000000000000000000000000000000000000000000602082015250565b6000613d276025836129bc565b9150613d3282613ccb565b604082019050919050565b60006020820190508181036000830152613d5681613d1a565b9050919050565b7f4552433732313a207472616e7366657220746f20746865207a65726f2061646460008201527f7265737300000000000000000000000000000000000000000000000000000000602082015250565b6000613db96024836129bc565b9150613dc482613d5d565b604082019050919050565b60006020820190508181036000830152613de881613dac565b9050919050565b7f4f776e61626c653a2063616c6c6572206973206e6f7420746865206f776e6572600082015250565b6000613e256020836129bc565b9150613e3082613def565b602082019050919050565b60006020820190508181036000830152613e5481613e18565b9050919050565b7f4552433732313a20617070726f766520746f2063616c6c657200000000000000600082015250565b6000613e916019836129bc565b9150613e9c82613e5b565b602082019050919050565b60006020820190508181036000830152613ec081613e84565b9050919050565b7f4552433732313a207472616e7366657220746f206e6f6e20455243373231526560008201527f63656976657220696d706c656d656e7465720000000000000000000000000000602082015250565b6000613f236032836129bc565b9150613f2e82613ec7565b604082019050919050565b60006020820190508181036000830152613f5281613f16565b9050919050565b600081519050919050565b600082825260208201905092915050565b6000613f8082613f59565b613f8a8185613f64565b9350613f9a8185602086016129cd565b613fa3816129f7565b840191505092915050565b6000608082019050613fc36000830187612af8565b613fd06020830186612af8565b613fdd6040830185612f77565b8181036060830152613fef8184613f75565b905095945050505050565b60008151905061400981612922565b92915050565b600060208284031215614025576140246128ec565b5b600061403384828501613ffa565b91505092915050565b7f4e487b7100000000000000000000000000000000000000000000000000000000600052601260045260246000fdfea264697066735822122056b2a615424793cdf7cfa8195bac8b92c6d0fbb415605ffbb15d0baa9e1e128664736f6c63430008120033",
  "linkReferences": {},
  "deployedLinkReferences": {}
}