{
  "_format": "hh-sol-artifact-1",
  "contractName": "BoxV3",
  "sourceName": "contracts/BoxV3.sol",
  "abi": [
    {
      "anonymous": false,
      "inputs": [
        {
          "indexed": false,
          "internalType": "string",
          "name": "name",
          "type": "string"
        }
      ],
      "name": "NameChanged",
      "type": "event"
    },
    {
      "anonymous": false,
      "inputs": [
        {
          "indexed": false,
          "internalType": "uint256",
          "name": "newValue",
          "type": "uint256"
        }
      ],
      "name": "ValueChanged",
      "type": "event"
    },
    {
      "inputs": [],
      "name": "increment",
      "outputs": [],
      "stateMutability": "nonpayable",
      "type": "function"
    },
    {
      "inputs": [],
      "name": "name",
      "outputs": [
        {
          "internalType": "string",
          "name": "",
          "type": "string"
        }
      ],
      "stateMutability": "view",
      "type": "function"
    },
    {
      "inputs": [],
      "name": "retrieve",
      "outputs": [
        {
          "internalType": "uint256",
          "name": "",
          "type": "uint256"
        }
      ],
      "stateMutability": "view",
      "type": "function"
    },
    {
      "inputs": [
        {
          "internalType": "string",
          "name": "_name",
          "type": "string"
        }
      ],
      "name": "setName",
      "outputs": [],
      "stateMutability": "nonpayable",
      "type": "function"
    },
    {
      "inputs": [
        {
          "internalType": "uint256",
          "name": "newValue",
          "type": "uint256"
        }
      ],
      "name": "store",
      "outputs": [],
      "stateMutability": "nonpayable",
      "type": "function"
    }
  ],
  "bytecode": "0x608060405234801561001057600080fd5b50610909806100206000396000f3fe608060405234801561001057600080fd5b50600436106100575760003560e01c806306fdde031461005c5780632e64cec11461007a5780636057361d14610098578063c47f0027146100b4578063d09de08a146100d0575b600080fd5b6100646100da565b60405161007191906102ab565b60405180910390f35b610082610168565b60405161008f91906102e6565b60405180910390f35b6100b260048036038101906100ad9190610341565b610171565b005b6100ce60048036038101906100c991906104a3565b6101b2565b005b6100d86101fd565b005b600180546100e79061051b565b80601f01602080910402602001604051908101604052809291908181526020018280546101139061051b565b80156101605780601f1061013557610100808354040283529160200191610160565b820191906000526020600020905b81548152906001019060200180831161014357829003601f168201915b505050505081565b60008054905090565b806000819055507f93fe6d397c74fdf1402a8b72e47b68512f0510d7b98a4bc4cbdf6ac7108b3c59816040516101a791906102e6565b60405180910390a150565b80600190816101c191906106f8565b507f4737457377f528cc8afd815f73ecb8b05df80d047dbffc41c17750a4033592bc60016040516101f2919061084e565b60405180910390a150565b610219600161020a610168565b610214919061089f565b610171565b565b600081519050919050565b600082825260208201905092915050565b60005b8381101561025557808201518184015260208101905061023a565b60008484015250505050565b6000601f19601f8301169050919050565b600061027d8261021b565b6102878185610226565b9350610297818560208601610237565b6102a081610261565b840191505092915050565b600060208201905081810360008301526102c58184610272565b905092915050565b6000819050919050565b6102e0816102cd565b82525050565b60006020820190506102fb60008301846102d7565b92915050565b6000604051905090565b600080fd5b600080fd5b61031e816102cd565b811461032957600080fd5b50565b60008135905061033b81610315565b92915050565b6000602082840312156103575761035661030b565b5b60006103658482850161032c565b91505092915050565b600080fd5b600080fd5b7f4e487b7100000000000000000000000000000000000000000000000000000000600052604160045260246000fd5b6103b082610261565b810181811067ffffffffffffffff821117156103cf576103ce610378565b5b80604052505050565b60006103e2610301565b90506103ee82826103a7565b919050565b600067ffffffffffffffff82111561040e5761040d610378565b5b61041782610261565b9050602081019050919050565b82818337600083830152505050565b6000610446610441846103f3565b6103d8565b90508281526020810184848401111561046257610461610373565b5b61046d848285610424565b509392505050565b600082601f83011261048a5761048961036e565b5b813561049a848260208601610433565b91505092915050565b6000602082840312156104b9576104b861030b565b5b600082013567ffffffffffffffff8111156104d7576104d6610310565b5b6104e384828501610475565b91505092915050565b7f4e487b7100000000000000000000000000000000000000000000000000000000600052602260045260246000fd5b6000600282049050600182168061053357607f821691505b602082108103610546576105456104ec565b5b50919050565b60008190508160005260206000209050919050565b60006020601f8301049050919050565b600082821b905092915050565b6000600883026105ae7fffffffffffffffffffffffffffffffffffffffffffffffffffffffffffffffff82610571565b6105b88683610571565b95508019841693508086168417925050509392505050565b6000819050919050565b60006105f56105f06105eb846102cd565b6105d0565b6102cd565b9050919050565b6000819050919050565b61060f836105da565b61062361061b826105fc565b84845461057e565b825550505050565b600090565b61063861062b565b610643818484610606565b505050565b5b818110156106675761065c600082610630565b600181019050610649565b5050565b601f8211156106ac5761067d8161054c565b61068684610561565b81016020851015610695578190505b6106a96106a185610561565b830182610648565b50505b505050565b600082821c905092915050565b60006106cf600019846008026106b1565b1980831691505092915050565b60006106e883836106be565b9150826002028217905092915050565b6107018261021b565b67ffffffffffffffff81111561071a57610719610378565b5b610724825461051b565b61072f82828561066b565b600060209050601f8311600181146107625760008415610750578287015190505b61075a85826106dc565b8655506107c2565b601f1984166107708661054c565b60005b8281101561079857848901518255600182019150602085019450602081019050610773565b868310156107b557848901516107b1601f8916826106be565b8355505b6001600288020188555050505b505050505050565b600081546107d78161051b565b6107e18186610226565b945060018216600081146107fc576001811461081257610845565b60ff198316865281151560200286019350610845565b61081b8561054c565b60005b8381101561083d5781548189015260018201915060208101905061081e565b808801955050505b50505092915050565b6000602082019050818103600083015261086881846107ca565b905092915050565b7f4e487b7100000000000000000000000000000000000000000000000000000000600052601160045260246000fd5b60006108aa826102cd565b91506108b5836102cd565b92508282019050808211156108cd576108cc610870565b5b9291505056fea264697066735822122044b46d0dca1e8b5623fed535ff11eeaf2d38445a685940637ad90736a19a88b464736f6c63430008120033",
  "linkReferences": {},
  "deployedLinkReferences": {}
}