{
  "_format": "hh-sol-artifact-1",
  "contractName": "BoxV4",
  "sourceName": "contracts/BoxV4.sol",
  "abi": [
    {
      "anonymous": false,
      "inputs": [
        {
          "indexed": false,
          "internalType": "string",
          "name": "name",
          "type": "string"
        }
      ],
      "name": "NameChanged",
      "type": "event"
    },
    {
      "anonymous": false,
      "inputs": [
        {
          "indexed": false,
          "internalType": "uint256",
          "name": "newValue",
          "type": "uint256"
        }
      ],
      "name": "ValueChanged",
      "type": "event"
    },
    {
      "inputs": [],
      "name": "getName",
      "outputs": [
        {
          "internalType": "string",
          "name": "",
          "type": "string"
        }
      ],
      "stateMutability": "view",
      "type": "function"
    },
    {
      "inputs": [],
      "name": "increment",
      "outputs": [],
      "stateMutability": "nonpayable",
      "type": "function"
    },
    {
      "inputs": [],
      "name": "retrieve",
      "outputs": [
        {
          "internalType": "uint256",
          "name": "",
          "type": "uint256"
        }
      ],
      "stateMutability": "view",
      "type": "function"
    },
    {
      "inputs": [
        {
          "internalType": "string",
          "name": "_name",
          "type": "string"
        }
      ],
      "name": "setName",
      "outputs": [],
      "stateMutability": "nonpayable",
      "type": "function"
    },
    {
      "inputs": [
        {
          "internalType": "uint256",
          "name": "newValue",
          "type": "uint256"
        }
      ],
      "name": "store",
      "outputs": [],
      "stateMutability": "nonpayable",
      "type": "function"
    }
  ],
  "bytecode": "0x608060405234801561001057600080fd5b5061099f806100206000396000f3fe608060405234801561001057600080fd5b50600436106100575760003560e01c806317d7de7c1461005c5780632e64cec11461007a5780636057361d14610098578063c47f0027146100b4578063d09de08a146100d0575b600080fd5b6100646100da565b6040516100719190610245565b60405180910390f35b610082610102565b60405161008f9190610280565b60405180910390f35b6100b260048036038101906100ad91906102db565b61010b565b005b6100ce60048036038101906100c9919061043d565b61014c565b005b6100d8610197565b005b606060016040516020016100ee91906105d5565b604051602081830303815290604052905090565b60008054905090565b806000819055507f93fe6d397c74fdf1402a8b72e47b68512f0510d7b98a4bc4cbdf6ac7108b3c59816040516101419190610280565b60405180910390a150565b806001908161015b919061078e565b507f4737457377f528cc8afd815f73ecb8b05df80d047dbffc41c17750a4033592bc600160405161018c91906108e4565b60405180910390a150565b6101b360016101a4610102565b6101ae9190610935565b61010b565b565b600081519050919050565b600082825260208201905092915050565b60005b838110156101ef5780820151818401526020810190506101d4565b60008484015250505050565b6000601f19601f8301169050919050565b6000610217826101b5565b61022181856101c0565b93506102318185602086016101d1565b61023a816101fb565b840191505092915050565b6000602082019050818103600083015261025f818461020c565b905092915050565b6000819050919050565b61027a81610267565b82525050565b60006020820190506102956000830184610271565b92915050565b6000604051905090565b600080fd5b600080fd5b6102b881610267565b81146102c357600080fd5b50565b6000813590506102d5816102af565b92915050565b6000602082840312156102f1576102f06102a5565b5b60006102ff848285016102c6565b91505092915050565b600080fd5b600080fd5b7f4e487b7100000000000000000000000000000000000000000000000000000000600052604160045260246000fd5b61034a826101fb565b810181811067ffffffffffffffff8211171561036957610368610312565b5b80604052505050565b600061037c61029b565b90506103888282610341565b919050565b600067ffffffffffffffff8211156103a8576103a7610312565b5b6103b1826101fb565b9050602081019050919050565b82818337600083830152505050565b60006103e06103db8461038d565b610372565b9050828152602081018484840111156103fc576103fb61030d565b5b6104078482856103be565b509392505050565b600082601f83011261042457610423610308565b5b81356104348482602086016103cd565b91505092915050565b600060208284031215610453576104526102a5565b5b600082013567ffffffffffffffff811115610471576104706102aa565b5b61047d8482850161040f565b91505092915050565b600081905092915050565b7f4e616d653a200000000000000000000000000000000000000000000000000000600082015250565b60006104c7600683610486565b91506104d282610491565b600682019050919050565b7f4e487b7100000000000000000000000000000000000000000000000000000000600052602260045260246000fd5b6000600282049050600182168061052457607f821691505b602082108103610537576105366104dd565b5b50919050565b60008190508160005260206000209050919050565b6000815461055f8161050c565b6105698186610486565b945060018216600081146105845760018114610599576105cc565b60ff19831686528115158202860193506105cc565b6105a28561053d565b60005b838110156105c4578154818901526001820191506020810190506105a5565b838801955050505b50505092915050565b60006105e0826104ba565b91506105ec8284610552565b915081905092915050565b60006020601f8301049050919050565b600082821b905092915050565b6000600883026106447fffffffffffffffffffffffffffffffffffffffffffffffffffffffffffffffff82610607565b61064e8683610607565b95508019841693508086168417925050509392505050565b6000819050919050565b600061068b61068661068184610267565b610666565b610267565b9050919050565b6000819050919050565b6106a583610670565b6106b96106b182610692565b848454610614565b825550505050565b600090565b6106ce6106c1565b6106d981848461069c565b505050565b5b818110156106fd576106f26000826106c6565b6001810190506106df565b5050565b601f821115610742576107138161053d565b61071c846105f7565b8101602085101561072b578190505b61073f610737856105f7565b8301826106de565b50505b505050565b600082821c905092915050565b600061076560001984600802610747565b1980831691505092915050565b600061077e8383610754565b9150826002028217905092915050565b610797826101b5565b67ffffffffffffffff8111156107b0576107af610312565b5b6107ba825461050c565b6107c5828285610701565b600060209050601f8311600181146107f857600084156107e6578287015190505b6107f08582610772565b865550610858565b601f1984166108068661053d565b60005b8281101561082e57848901518255600182019150602085019450602081019050610809565b8683101561084b5784890151610847601f891682610754565b8355505b6001600288020188555050505b505050505050565b6000815461086d8161050c565b61087781866101c0565b9450600182166000811461089257600181146108a8576108db565b60ff1983168652811515602002860193506108db565b6108b18561053d565b60005b838110156108d3578154818901526001820191506020810190506108b4565b808801955050505b50505092915050565b600060208201905081810360008301526108fe8184610860565b905092915050565b7f4e487b7100000000000000000000000000000000000000000000000000000000600052601160045260246000fd5b600061094082610267565b915061094b83610267565b925082820190508082111561096357610962610906565b5b9291505056fea26469706673582212205b0f1ccf35bf2b6912b74c40e9a4b93beb30c94a3c17bda97a3c2b2d49908e8964736f6c63430008120033",
  "linkReferences": {},
  "deployedLinkReferences": {}
}