{
	"_format": "hh-sol-artifact-1",
	"contractName": "My721Token",
	"sourceName": "contracts/My721Token.sol",
	"abi": [
		{
			"inputs": [],
			"stateMutability": "nonpayable",
			"type": "constructor"
		},
		{
			"anonymous": false,
			"inputs": [
				{
					"indexed": true,
					"internalType": "address",
					"name": "owner",
					"type": "address"
				},
				{
					"indexed": true,
					"internalType": "address",
					"name": "approved",
					"type": "address"
				},
				{
					"indexed": true,
					"internalType": "uint256",
					"name": "tokenId",
					"type": "uint256"
				}
			],
			"name": "Approval",
			"type": "event"
		},
		{
			"anonymous": false,
			"inputs": [
				{
					"indexed": true,
					"internalType": "address",
					"name": "owner",
					"type": "address"
				},
				{
					"indexed": true,
					"internalType": "address",
					"name": "operator",
					"type": "address"
				},
				{
					"indexed": false,
					"internalType": "bool",
					"name": "approved",
					"type": "bool"
				}
			],
			"name": "ApprovalForAll",
			"type": "event"
		},
		{
			"anonymous": false,
			"inputs": [
				{
					"indexed": true,
					"internalType": "address",
					"name": "previousOwner",
					"type": "address"
				},
				{
					"indexed": true,
					"internalType": "address",
					"name": "newOwner",
					"type": "address"
				}
			],
			"name": "OwnershipTransferred",
			"type": "event"
		},
		{
			"anonymous": false,
			"inputs": [
				{
					"indexed": true,
					"internalType": "address",
					"name": "from",
					"type": "address"
				},
				{
					"indexed": true,
					"internalType": "address",
					"name": "to",
					"type": "address"
				},
				{
					"indexed": true,
					"internalType": "uint256",
					"name": "tokenId",
					"type": "uint256"
				}
			],
			"name": "Transfer",
			"type": "event"
		},
		{
			"inputs": [
				{
					"internalType": "address",
					"name": "to",
					"type": "address"
				},
				{
					"internalType": "uint256",
					"name": "tokenId",
					"type": "uint256"
				}
			],
			"name": "approve",
			"outputs": [],
			"stateMutability": "nonpayable",
			"type": "function"
		},
		{
			"inputs": [
				{
					"internalType": "address",
					"name": "owner",
					"type": "address"
				}
			],
			"name": "balanceOf",
			"outputs": [
				{
					"internalType": "uint256",
					"name": "",
					"type": "uint256"
				}
			],
			"stateMutability": "view",
			"type": "function"
		},
		{
			"inputs": [
				{
					"internalType": "uint256",
					"name": "tokenId",
					"type": "uint256"
				}
			],
			"name": "getApproved",
			"outputs": [
				{
					"internalType": "address",
					"name": "",
					"type": "address"
				}
			],
			"stateMutability": "view",
			"type": "function"
		},
		{
			"inputs": [
				{
					"internalType": "address",
					"name": "owner",
					"type": "address"
				},
				{
					"internalType": "address",
					"name": "operator",
					"type": "address"
				}
			],
			"name": "isApprovedForAll",
			"outputs": [
				{
					"internalType": "bool",
					"name": "",
					"type": "bool"
				}
			],
			"stateMutability": "view",
			"type": "function"
		},
		{
			"inputs": [],
			"name": "name",
			"outputs": [
				{
					"internalType": "string",
					"name": "",
					"type": "string"
				}
			],
			"stateMutability": "view",
			"type": "function"
		},
		{
			"inputs": [],
			"name": "owner",
			"outputs": [
				{
					"internalType": "address",
					"name": "",
					"type": "address"
				}
			],
			"stateMutability": "view",
			"type": "function"
		},
		{
			"inputs": [
				{
					"internalType": "uint256",
					"name": "tokenId",
					"type": "uint256"
				}
			],
			"name": "ownerOf",
			"outputs": [
				{
					"internalType": "address",
					"name": "",
					"type": "address"
				}
			],
			"stateMutability": "view",
			"type": "function"
		},
		{
			"inputs": [],
			"name": "renounceOwnership",
			"outputs": [],
			"stateMutability": "nonpayable",
			"type": "function"
		},
		{
			"inputs": [
				{
					"internalType": "address",
					"name": "to",
					"type": "address"
				},
				{
					"internalType": "uint256",
					"name": "tokenId",
					"type": "uint256"
				}
			],
			"name": "safeMint",
			"outputs": [],
			"stateMutability": "nonpayable",
			"type": "function"
		},
		{
			"inputs": [
				{
					"internalType": "address",
					"name": "from",
					"type": "address"
				},
				{
					"internalType": "address",
					"name": "to",
					"type": "address"
				},
				{
					"internalType": "uint256",
					"name": "tokenId",
					"type": "uint256"
				}
			],
			"name": "safeTransferFrom",
			"outputs": [],
			"stateMutability": "nonpayable",
			"type": "function"
		},
		{
			"inputs": [
				{
					"internalType": "address",
					"name": "from",
					"type": "address"
				},
				{
					"internalType": "address",
					"name": "to",
					"type": "address"
				},
				{
					"internalType": "uint256",
					"name": "tokenId",
					"type": "uint256"
				},
				{
					"internalType": "bytes",
					"name": "_data",
					"type": "bytes"
				}
			],
			"name": "safeTransferFrom",
			"outputs": [],
			"stateMutability": "nonpayable",
			"type": "function"
		},
		{
			"inputs": [
				{
					"internalType": "address",
					"name": "operator",
					"type": "address"
				},
				{
					"internalType": "bool",
					"name": "approved",
					"type": "bool"
				}
			],
			"name": "setApprovalForAll",
			"outputs": [],
			"stateMutability": "nonpayable",
			"type": "function"
		},
		{
			"inputs": [
				{
					"internalType": "bytes4",
					"name": "interfaceId",
					"type": "bytes4"
				}
			],
			"name": "supportsInterface",
			"outputs": [
				{
					"internalType": "bool",
					"name": "",
					"type": "bool"
				}
			],
			"stateMutability": "view",
			"type": "function"
		},
		{
			"inputs": [],
			"name": "symbol",
			"outputs": [
				{
					"internalType": "string",
					"name": "",
					"type": "string"
				}
			],
			"stateMutability": "view",
			"type": "function"
		},
		{
			"inputs": [
				{
					"internalType": "uint256",
					"name": "tokenId",
					"type": "uint256"
				}
			],
			"name": "tokenURI",
			"outputs": [
				{
					"internalType": "string",
					"name": "",
					"type": "string"
				}
			],
			"stateMutability": "view",
			"type": "function"
		},
		{
			"inputs": [
				{
					"internalType": "address",
					"name": "from",
					"type": "address"
				},
				{
					"internalType": "address",
					"name": "to",
					"type": "address"
				},
				{
					"internalType": "uint256",
					"name": "tokenId",
					"type": "uint256"
				}
			],
			"name": "transferFrom",
			"outputs": [],
			"stateMutability": "nonpayable",
			"type": "function"
		},
		{
			"inputs": [
				{
					"internalType": "address",
					"name": "newOwner",
					"type": "address"
				}
			],
			"name": "transferOwnership",
			"outputs": [],
			"stateMutability": "nonpayable",
			"type": "function"
		}
	],
	"bytecode": "0x60806040523480156200001157600080fd5b506040518060400160405280600a81526020016926bc9b9918aa37b5b2b760b11b815250604051806040016040528060048152602001634d37323160e01b81525081600090816200006391906200050a565b5060016200007282826200050a565b5050506200008f62000089620000c460201b60201c565b620000c8565b60005b6064811015620000bd57620000a833826200011a565b80620000b481620005ec565b91505062000092565b50620006ca565b3390565b600680546001600160a01b038381166001600160a01b0319831681179093556040519116919082907f8be0079c531659141344cd1fd0a4f28419497f9722a3daafe3b4186f6b6457e090600090a35050565b6200013c8282604051806020016040528060008152506200014060201b60201c565b5050565b6200014c8383620001bc565b6200015b600084848462000304565b620001b75760405162461bcd60e51b8152602060048201526032602482015260008051602062001c8383398151915260448201527131b2b4bb32b91034b6b83632b6b2b73a32b960711b60648201526084015b60405180910390fd5b505050565b6001600160a01b038216620002145760405162461bcd60e51b815260206004820181905260248201527f4552433732313a206d696e7420746f20746865207a65726f20616464726573736044820152606401620001ae565b6000818152600260205260409020546001600160a01b0316156200027b5760405162461bcd60e51b815260206004820152601c60248201527f4552433732313a20746f6b656e20616c7265616479206d696e746564000000006044820152606401620001ae565b6001600160a01b0382166000908152600360205260408120805460019290620002a690849062000608565b909155505060008181526002602052604080822080546001600160a01b0319166001600160a01b03861690811790915590518392907fddf252ad1be2c89b69c2b068fc378daa952ba7f163c4a11628f55a4df523b3ef908290a45050565b600062000325846001600160a01b03166200046060201b620009811760201c565b156200045457604051630a85bd0160e11b81526001600160a01b0385169063150b7a02906200035f90339089908890889060040162000624565b6020604051808303816000875af19250505080156200039d575060408051601f3d908101601f191682019092526200039a9181019062000697565b60015b62000439573d808015620003ce576040519150601f19603f3d011682016040523d82523d6000602084013e620003d3565b606091505b508051600003620004315760405162461bcd60e51b8152602060048201526032602482015260008051602062001c8383398151915260448201527131b2b4bb32b91034b6b83632b6b2b73a32b960711b6064820152608401620001ae565b805181602001fd5b6001600160e01b031916630a85bd0160e11b14905062000458565b5060015b949350505050565b3b151590565b634e487b7160e01b600052604160045260246000fd5b600181811c908216806200049157607f821691505b602082108103620004b257634e487b7160e01b600052602260045260246000fd5b50919050565b601f821115620001b757600081815260208120601f850160051c81016020861015620004e15750805b601f850160051c820191505b818110156200050257828155600101620004ed565b505050505050565b81516001600160401b0381111562000526576200052662000466565b6200053e816200053784546200047c565b84620004b8565b602080601f8311600181146200057657600084156200055d5750858301515b600019600386901b1c1916600185901b17855562000502565b600085815260208120601f198616915b82811015620005a75788860151825594840194600190910190840162000586565b5085821015620005c65787850151600019600388901b60f8161c191681555b5050505050600190811b01905550565b634e487b7160e01b600052601160045260246000fd5b600060018201620006015762000601620005d6565b5060010190565b808201808211156200061e576200061e620005d6565b92915050565b600060018060a01b038087168352602081871681850152856040850152608060608501528451915081608085015260005b82811015620006735785810182015185820160a00152810162000655565b5050600060a0828501015260a0601f19601f83011684010191505095945050505050565b600060208284031215620006aa57600080fd5b81516001600160e01b031981168114620006c357600080fd5b9392505050565b6115a980620006da6000396000f3fe608060405234801561001057600080fd5b506004361061010b5760003560e01c8063715018a6116100a2578063a22cb46511610071578063a22cb4651461021b578063b88d4fde1461022e578063c87b56dd14610241578063e985e9c514610254578063f2fde38b1461026757600080fd5b8063715018a6146101e75780638da5cb5b146101ef57806395d89b4114610200578063a14481941461020857600080fd5b806323b872dd116100de57806323b872dd1461018d57806342842e0e146101a05780636352211e146101b357806370a08231146101c657600080fd5b806301ffc9a71461011057806306fdde0314610138578063081812fc1461014d578063095ea7b314610178575b600080fd5b61012361011e366004611098565b61027a565b60405190151581526020015b60405180910390f35b6101406102cc565b60405161012f9190611105565b61016061015b366004611118565b61035e565b6040516001600160a01b03909116815260200161012f565b61018b61018636600461114d565b6103f8565b005b61018b61019b366004611177565b61050d565b61018b6101ae366004611177565b61053e565b6101606101c1366004611118565b610559565b6101d96101d43660046111b3565b6105d0565b60405190815260200161012f565b61018b610657565b6006546001600160a01b0316610160565b61014061068d565b61018b61021636600461114d565b61069c565b61018b6102293660046111ce565b6106d4565b61018b61023c366004611220565b610798565b61014061024f366004611118565b6107d0565b6101236102623660046112fc565b6108b8565b61018b6102753660046111b3565b6108e6565b60006001600160e01b031982166380ac58cd60e01b14806102ab57506001600160e01b03198216635b5e139f60e01b145b806102c657506301ffc9a760e01b6001600160e01b03198316145b92915050565b6060600080546102db9061132f565b80601f01602080910402602001604051908101604052809291908181526020018280546103079061132f565b80156103545780601f1061032957610100808354040283529160200191610354565b820191906000526020600020905b81548152906001019060200180831161033757829003601f168201915b5050505050905090565b6000818152600260205260408120546001600160a01b03166103dc5760405162461bcd60e51b815260206004820152602c60248201527f4552433732313a20617070726f76656420717565727920666f72206e6f6e657860448201526b34b9ba32b73a103a37b5b2b760a11b60648201526084015b60405180910390fd5b506000908152600460205260409020546001600160a01b031690565b600061040382610559565b9050806001600160a01b0316836001600160a01b0316036104705760405162461bcd60e51b815260206004820152602160248201527f4552433732313a20617070726f76616c20746f2063757272656e74206f776e656044820152603960f91b60648201526084016103d3565b336001600160a01b038216148061048c575061048c81336108b8565b6104fe5760405162461bcd60e51b815260206004820152603860248201527f4552433732313a20617070726f76652063616c6c6572206973206e6f74206f7760448201527f6e6572206e6f7220617070726f76656420666f7220616c6c000000000000000060648201526084016103d3565b6105088383610987565b505050565b61051733826109f5565b6105335760405162461bcd60e51b81526004016103d390611369565b610508838383610acc565b61050883838360405180602001604052806000815250610798565b6000818152600260205260408120546001600160a01b0316806102c65760405162461bcd60e51b815260206004820152602960248201527f4552433732313a206f776e657220717565727920666f72206e6f6e657869737460448201526832b73a103a37b5b2b760b91b60648201526084016103d3565b60006001600160a01b03821661063b5760405162461bcd60e51b815260206004820152602a60248201527f4552433732313a2062616c616e636520717565727920666f7220746865207a65604482015269726f206164647265737360b01b60648201526084016103d3565b506001600160a01b031660009081526003602052604090205490565b6006546001600160a01b031633146106815760405162461bcd60e51b81526004016103d3906113ba565b61068b6000610c6c565b565b6060600180546102db9061132f565b6006546001600160a01b031633146106c65760405162461bcd60e51b81526004016103d3906113ba565b6106d08282610cbe565b5050565b336001600160a01b0383160361072c5760405162461bcd60e51b815260206004820152601960248201527f4552433732313a20617070726f766520746f2063616c6c65720000000000000060448201526064016103d3565b3360008181526005602090815260408083206001600160a01b03871680855290835292819020805460ff191686151590811790915590519081529192917f17307eab39ab6107e8899845ad3d59bd9653f200f220920489ca2b5937696c31910160405180910390a35050565b6107a233836109f5565b6107be5760405162461bcd60e51b81526004016103d390611369565b6107ca84848484610cd8565b50505050565b6000818152600260205260409020546060906001600160a01b031661084f5760405162461bcd60e51b815260206004820152602f60248201527f4552433732314d657461646174613a2055524920717565727920666f72206e6f60448201526e3732bc34b9ba32b73a103a37b5b2b760891b60648201526084016103d3565b600061086660408051602081019091526000815290565b9050600081511161088657604051806020016040528060008152506108b1565b8061089084610d0b565b6040516020016108a19291906113ef565b6040516020818303038152906040525b9392505050565b6001600160a01b03918216600090815260056020908152604080832093909416825291909152205460ff1690565b6006546001600160a01b031633146109105760405162461bcd60e51b81526004016103d3906113ba565b6001600160a01b0381166109755760405162461bcd60e51b815260206004820152602660248201527f4f776e61626c653a206e6577206f776e657220697320746865207a65726f206160448201526564647265737360d01b60648201526084016103d3565b61097e81610c6c565b50565b3b151590565b600081815260046020526040902080546001600160a01b0319166001600160a01b03841690811790915581906109bc82610559565b6001600160a01b03167f8c5be1e5ebec7d5bd14f71427d1e84f3dd0314c0f7b2291e5b200ac8c7c3b92560405160405180910390a45050565b6000818152600260205260408120546001600160a01b0316610a6e5760405162461bcd60e51b815260206004820152602c60248201527f4552433732313a206f70657261746f7220717565727920666f72206e6f6e657860448201526b34b9ba32b73a103a37b5b2b760a11b60648201526084016103d3565b6000610a7983610559565b9050806001600160a01b0316846001600160a01b03161480610ab45750836001600160a01b0316610aa98461035e565b6001600160a01b0316145b80610ac45750610ac481856108b8565b949350505050565b826001600160a01b0316610adf82610559565b6001600160a01b031614610b475760405162461bcd60e51b815260206004820152602960248201527f4552433732313a207472616e73666572206f6620746f6b656e2074686174206960448201526839903737ba1037bbb760b91b60648201526084016103d3565b6001600160a01b038216610ba95760405162461bcd60e51b8152602060048201526024808201527f4552433732313a207472616e7366657220746f20746865207a65726f206164646044820152637265737360e01b60648201526084016103d3565b610bb4600082610987565b6001600160a01b0383166000908152600360205260408120805460019290610bdd908490611434565b90915550506001600160a01b0382166000908152600360205260408120805460019290610c0b908490611447565b909155505060008181526002602052604080822080546001600160a01b0319166001600160a01b0386811691821790925591518493918716917fddf252ad1be2c89b69c2b068fc378daa952ba7f163c4a11628f55a4df523b3ef91a4505050565b600680546001600160a01b038381166001600160a01b0319831681179093556040519116919082907f8be0079c531659141344cd1fd0a4f28419497f9722a3daafe3b4186f6b6457e090600090a35050565b6106d0828260405180602001604052806000815250610e0c565b610ce3848484610acc565b610cef84848484610e3f565b6107ca5760405162461bcd60e51b81526004016103d39061145a565b606081600003610d325750506040805180820190915260018152600360fc1b602082015290565b8160005b8115610d5c5780610d46816114ac565b9150610d559050600a836114db565b9150610d36565b60008167ffffffffffffffff811115610d7757610d7761120a565b6040519080825280601f01601f191660200182016040528015610da1576020820181803683370190505b5090505b8415610ac457610db6600183611434565b9150610dc3600a866114ef565b610dce906030611447565b60f81b818381518110610de357610de3611503565b60200101906001600160f81b031916908160001a905350610e05600a866114db565b9450610da5565b610e168383610f40565b610e236000848484610e3f565b6105085760405162461bcd60e51b81526004016103d39061145a565b60006001600160a01b0384163b15610f3557604051630a85bd0160e11b81526001600160a01b0385169063150b7a0290610e83903390899088908890600401611519565b6020604051808303816000875af1925050508015610ebe575060408051601f3d908101601f19168201909252610ebb91810190611556565b60015b610f1b573d808015610eec576040519150601f19603f3d011682016040523d82523d6000602084013e610ef1565b606091505b508051600003610f135760405162461bcd60e51b81526004016103d39061145a565b805181602001fd5b6001600160e01b031916630a85bd0160e11b149050610ac4565b506001949350505050565b6001600160a01b038216610f965760405162461bcd60e51b815260206004820181905260248201527f4552433732313a206d696e7420746f20746865207a65726f206164647265737360448201526064016103d3565b6000818152600260205260409020546001600160a01b031615610ffb5760405162461bcd60e51b815260206004820152601c60248201527f4552433732313a20746f6b656e20616c7265616479206d696e7465640000000060448201526064016103d3565b6001600160a01b0382166000908152600360205260408120805460019290611024908490611447565b909155505060008181526002602052604080822080546001600160a01b0319166001600160a01b03861690811790915590518392907fddf252ad1be2c89b69c2b068fc378daa952ba7f163c4a11628f55a4df523b3ef908290a45050565b6001600160e01b03198116811461097e57600080fd5b6000602082840312156110aa57600080fd5b81356108b181611082565b60005b838110156110d05781810151838201526020016110b8565b50506000910152565b600081518084526110f18160208601602086016110b5565b601f01601f19169290920160200192915050565b6020815260006108b160208301846110d9565b60006020828403121561112a57600080fd5b5035919050565b80356001600160a01b038116811461114857600080fd5b919050565b6000806040838503121561116057600080fd5b61116983611131565b946020939093013593505050565b60008060006060848603121561118c57600080fd5b61119584611131565b92506111a360208501611131565b9150604084013590509250925092565b6000602082840312156111c557600080fd5b6108b182611131565b600080604083850312156111e157600080fd5b6111ea83611131565b9150602083013580151581146111ff57600080fd5b809150509250929050565b634e487b7160e01b600052604160045260246000fd5b6000806000806080858703121561123657600080fd5b61123f85611131565b935061124d60208601611131565b925060408501359150606085013567ffffffffffffffff8082111561127157600080fd5b818701915087601f83011261128557600080fd5b8135818111156112975761129761120a565b604051601f8201601f19908116603f011681019083821181831017156112bf576112bf61120a565b816040528281528a60208487010111156112d857600080fd5b82602086016020830137600060208483010152809550505050505092959194509250565b6000806040838503121561130f57600080fd5b61131883611131565b915061132660208401611131565b90509250929050565b600181811c9082168061134357607f821691505b60208210810361136357634e487b7160e01b600052602260045260246000fd5b50919050565b60208082526031908201527f4552433732313a207472616e736665722063616c6c6572206973206e6f74206f6040820152701ddb995c881b9bdc88185c1c1c9bdd9959607a1b606082015260800190565b6020808252818101527f4f776e61626c653a2063616c6c6572206973206e6f7420746865206f776e6572604082015260600190565b600083516114018184602088016110b5565b8351908301906114158183602088016110b5565b01949350505050565b634e487b7160e01b600052601160045260246000fd5b818103818111156102c6576102c661141e565b808201808211156102c6576102c661141e565b60208082526032908201527f4552433732313a207472616e7366657220746f206e6f6e20455243373231526560408201527131b2b4bb32b91034b6b83632b6b2b73a32b960711b606082015260800190565b6000600182016114be576114be61141e565b5060010190565b634e487b7160e01b600052601260045260246000fd5b6000826114ea576114ea6114c5565b500490565b6000826114fe576114fe6114c5565b500690565b634e487b7160e01b600052603260045260246000fd5b6001600160a01b038581168252841660208201526040810183905260806060820181905260009061154c908301846110d9565b9695505050505050565b60006020828403121561156857600080fd5b81516108b18161108256fea26469706673582212205698a5a6fd1f5302a2c63bde8f1af21e3993154036bb6b38c13a553a48b6c79364736f6c634300081100334552433732313a207472616e7366657220746f206e6f6e204552433732315265",
	"linkReferences": {},
	"deployedLinkReferences": {}
}