{
	"_format": "hh-sol-artifact-1",
	"contractName": "NFTMarketplace",
	"sourceName": "contracts/NFTMartketplace.sol",
	"abi": [
		{
			"anonymous": false,
			"inputs": [
				{
					"indexed": false,
					"internalType": "uint8",
					"name": "version",
					"type": "uint8"
				}
			],
			"name": "Initialized",
			"type": "event"
		},
		{
			"anonymous": false,
			"inputs": [
				{
					"indexed": true,
					"internalType": "uint256",
					"name": "tokenId",
					"type": "uint256"
				},
				{
					"indexed": false,
					"internalType": "address",
					"name": "seller",
					"type": "address"
				},
				{
					"indexed": false,
					"internalType": "address",
					"name": "owner",
					"type": "address"
				},
				{
					"indexed": false,
					"internalType": "uint256",
					"name": "price",
					"type": "uint256"
				},
				{
					"indexed": false,
					"internalType": "bool",
					"name": "sold",
					"type": "bool"
				}
			],
			"name": "MarketItemCreated",
			"type": "event"
		},
		{
			"anonymous": false,
			"inputs": [
				{
					"indexed": true,
					"internalType": "uint256",
					"name": "tokenId",
					"type": "uint256"
				},
				{
					"indexed": false,
					"internalType": "uint256",
					"name": "startingBid",
					"type": "uint256"
				},
				{
					"indexed": false,
					"internalType": "uint256",
					"name": "endTime",
					"type": "uint256"
				}
			],
			"name": "NFTAuctionListed",
			"type": "event"
		},
		{
			"anonymous": false,
			"inputs": [
				{
					"indexed": true,
					"internalType": "address",
					"name": "previousOwner",
					"type": "address"
				},
				{
					"indexed": true,
					"internalType": "address",
					"name": "newOwner",
					"type": "address"
				}
			],
			"name": "OwnershipTransferred",
			"type": "event"
		},
		{
			"inputs": [],
			"name": "_allBids",
			"outputs": [
				{
					"internalType": "uint256",
					"name": "_value",
					"type": "uint256"
				}
			],
			"stateMutability": "view",
			"type": "function"
		},
		{
			"inputs": [],
			"name": "_auctions",
			"outputs": [
				{
					"internalType": "uint256",
					"name": "_value",
					"type": "uint256"
				}
			],
			"stateMutability": "view",
			"type": "function"
		},
		{
			"inputs": [],
			"name": "_fixedListings",
			"outputs": [
				{
					"internalType": "uint256",
					"name": "_value",
					"type": "uint256"
				}
			],
			"stateMutability": "view",
			"type": "function"
		},
		{
			"inputs": [
				{
					"internalType": "uint256",
					"name": "",
					"type": "uint256"
				}
			],
			"name": "auctionListings",
			"outputs": [
				{
					"internalType": "address",
					"name": "collectionAddress",
					"type": "address"
				},
				{
					"internalType": "uint256",
					"name": "tokenId",
					"type": "uint256"
				},
				{
					"internalType": "uint256",
					"name": "highestBid",
					"type": "uint256"
				},
				{
					"internalType": "address",
					"name": "highestBidder",
					"type": "address"
				},
				{
					"internalType": "uint256",
					"name": "endTime",
					"type": "uint256"
				},
				{
					"internalType": "address",
					"name": "owner",
					"type": "address"
				},
				{
					"internalType": "bool",
					"name": "active",
					"type": "bool"
				},
				{
					"internalType": "uint256",
					"name": "totalBids",
					"type": "uint256"
				}
			],
			"stateMutability": "view",
			"type": "function"
		},
		{
			"inputs": [
				{
					"internalType": "uint256",
					"name": "listingId",
					"type": "uint256"
				}
			],
			"name": "buyFromListing",
			"outputs": [],
			"stateMutability": "payable",
			"type": "function"
		},
		{
			"inputs": [
				{
					"internalType": "uint256",
					"name": "auctionId",
					"type": "uint256"
				}
			],
			"name": "endAuction",
			"outputs": [],
			"stateMutability": "nonpayable",
			"type": "function"
		},
		{
			"inputs": [],
			"name": "fetchItemsListed",
			"outputs": [
				{
					"components": [
						{
							"internalType": "uint256",
							"name": "tokenId",
							"type": "uint256"
						},
						{
							"internalType": "address",
							"name": "collectionAddress",
							"type": "address"
						},
						{
							"internalType": "address payable",
							"name": "seller",
							"type": "address"
						},
						{
							"internalType": "address payable",
							"name": "owner",
							"type": "address"
						},
						{
							"internalType": "uint256",
							"name": "price",
							"type": "uint256"
						},
						{
							"internalType": "bool",
							"name": "sold",
							"type": "bool"
						}
					],
					"internalType": "struct NFTMarketplace.MarketItem[]",
					"name": "",
					"type": "tuple[]"
				}
			],
			"stateMutability": "view",
			"type": "function"
		},
		{
			"inputs": [],
			"name": "fetchMarketItems",
			"outputs": [
				{
					"components": [
						{
							"internalType": "uint256",
							"name": "tokenId",
							"type": "uint256"
						},
						{
							"internalType": "address",
							"name": "collectionAddress",
							"type": "address"
						},
						{
							"internalType": "address payable",
							"name": "seller",
							"type": "address"
						},
						{
							"internalType": "address payable",
							"name": "owner",
							"type": "address"
						},
						{
							"internalType": "uint256",
							"name": "price",
							"type": "uint256"
						},
						{
							"internalType": "bool",
							"name": "sold",
							"type": "bool"
						}
					],
					"internalType": "struct NFTMarketplace.MarketItem[]",
					"name": "",
					"type": "tuple[]"
				}
			],
			"stateMutability": "view",
			"type": "function"
		},
		{
			"inputs": [],
			"name": "fetchMyNFTs",
			"outputs": [
				{
					"components": [
						{
							"internalType": "uint256",
							"name": "tokenId",
							"type": "uint256"
						},
						{
							"internalType": "address",
							"name": "collectionAddress",
							"type": "address"
						},
						{
							"internalType": "address payable",
							"name": "seller",
							"type": "address"
						},
						{
							"internalType": "address payable",
							"name": "owner",
							"type": "address"
						},
						{
							"internalType": "uint256",
							"name": "price",
							"type": "uint256"
						},
						{
							"internalType": "bool",
							"name": "sold",
							"type": "bool"
						}
					],
					"internalType": "struct NFTMarketplace.MarketItem[]",
					"name": "",
					"type": "tuple[]"
				}
			],
			"stateMutability": "view",
			"type": "function"
		},
		{
			"inputs": [],
			"name": "getAllAuctionListings",
			"outputs": [
				{
					"components": [
						{
							"internalType": "address",
							"name": "collectionAddress",
							"type": "address"
						},
						{
							"internalType": "uint256",
							"name": "tokenId",
							"type": "uint256"
						},
						{
							"internalType": "uint256",
							"name": "highestBid",
							"type": "uint256"
						},
						{
							"internalType": "address",
							"name": "highestBidder",
							"type": "address"
						},
						{
							"internalType": "uint256",
							"name": "endTime",
							"type": "uint256"
						},
						{
							"internalType": "address",
							"name": "owner",
							"type": "address"
						},
						{
							"internalType": "bool",
							"name": "active",
							"type": "bool"
						},
						{
							"internalType": "uint256[]",
							"name": "bids",
							"type": "uint256[]"
						},
						{
							"internalType": "uint256",
							"name": "totalBids",
							"type": "uint256"
						}
					],
					"internalType": "struct NFTMarketplace.AuctionListing[]",
					"name": "",
					"type": "tuple[]"
				}
			],
			"stateMutability": "view",
			"type": "function"
		},
		{
			"inputs": [
				{
					"internalType": "uint256",
					"name": "auctionId",
					"type": "uint256"
				}
			],
			"name": "getAllBids",
			"outputs": [
				{
					"components": [
						{
							"internalType": "address",
							"name": "bidder",
							"type": "address"
						},
						{
							"internalType": "uint256",
							"name": "amount",
							"type": "uint256"
						}
					],
					"internalType": "struct NFTMarketplace.Bid[]",
					"name": "",
					"type": "tuple[]"
				}
			],
			"stateMutability": "view",
			"type": "function"
		},
		{
			"inputs": [
				{
					"internalType": "uint256",
					"name": "auctionId",
					"type": "uint256"
				}
			],
			"name": "getAuctionListing",
			"outputs": [
				{
					"components": [
						{
							"internalType": "address",
							"name": "collectionAddress",
							"type": "address"
						},
						{
							"internalType": "uint256",
							"name": "tokenId",
							"type": "uint256"
						},
						{
							"internalType": "uint256",
							"name": "highestBid",
							"type": "uint256"
						},
						{
							"internalType": "address",
							"name": "highestBidder",
							"type": "address"
						},
						{
							"internalType": "uint256",
							"name": "endTime",
							"type": "uint256"
						},
						{
							"internalType": "address",
							"name": "owner",
							"type": "address"
						},
						{
							"internalType": "bool",
							"name": "active",
							"type": "bool"
						},
						{
							"internalType": "uint256[]",
							"name": "bids",
							"type": "uint256[]"
						},
						{
							"internalType": "uint256",
							"name": "totalBids",
							"type": "uint256"
						}
					],
					"internalType": "struct NFTMarketplace.AuctionListing",
					"name": "",
					"type": "tuple"
				}
			],
			"stateMutability": "view",
			"type": "function"
		},
		{
			"inputs": [],
			"name": "getListingPrice",
			"outputs": [
				{
					"internalType": "uint256",
					"name": "",
					"type": "uint256"
				}
			],
			"stateMutability": "view",
			"type": "function"
		},
		{
			"inputs": [],
			"name": "initialize",
			"outputs": [],
			"stateMutability": "nonpayable",
			"type": "function"
		},
		{
			"inputs": [
				{
					"internalType": "uint256",
					"name": "tokenId",
					"type": "uint256"
				},
				{
					"internalType": "uint256",
					"name": "price",
					"type": "uint256"
				},
				{
					"internalType": "address",
					"name": "collectionAddress",
					"type": "address"
				}
			],
			"name": "listNFT",
			"outputs": [],
			"stateMutability": "payable",
			"type": "function"
		},
		{
			"inputs": [],
			"name": "owner",
			"outputs": [
				{
					"internalType": "address",
					"name": "",
					"type": "address"
				}
			],
			"stateMutability": "view",
			"type": "function"
		},
		{
			"inputs": [
				{
					"internalType": "uint256",
					"name": "auctionId",
					"type": "uint256"
				}
			],
			"name": "placeBid",
			"outputs": [],
			"stateMutability": "payable",
			"type": "function"
		},
		{
			"inputs": [],
			"name": "renounceOwnership",
			"outputs": [],
			"stateMutability": "nonpayable",
			"type": "function"
		},
		{
			"inputs": [
				{
					"internalType": "uint256",
					"name": "tokenId",
					"type": "uint256"
				},
				{
					"internalType": "uint256",
					"name": "startingBid",
					"type": "uint256"
				},
				{
					"internalType": "uint256",
					"name": "duration",
					"type": "uint256"
				},
				{
					"internalType": "address",
					"name": "collectionAddress",
					"type": "address"
				}
			],
			"name": "startAuction",
			"outputs": [],
			"stateMutability": "payable",
			"type": "function"
		},
		{
			"inputs": [
				{
					"internalType": "address",
					"name": "newOwner",
					"type": "address"
				}
			],
			"name": "transferOwnership",
			"outputs": [],
			"stateMutability": "nonpayable",
			"type": "function"
		},
		{
			"inputs": [
				{
					"internalType": "uint256",
					"name": "_listingPrice",
					"type": "uint256"
				}
			],
			"name": "updateListingPrice",
			"outputs": [],
			"stateMutability": "payable",
			"type": "function"
		}
	],
	"bytecode": "0x608060405234801561001057600080fd5b50613c80806100206000396000f3fe60806040526004361061012a5760003560e01c8063715018a6116100ab578063a528ff831161006f578063a528ff8314610371578063ae677aa3146103ae578063b3470ce4146103ca578063b9a2de3a146103e6578063d44233361461040f578063f2fde38b146104535761012a565b8063715018a6146102e05780638129fc1c146102f757806389afd9b01461030e5780638da5cb5b1461032a5780639979ef45146103555761012a565b8063396ec259116100f2578063396ec259146101f757806345f8fa80146102345780635128acda1461025f5780635aa97ffb1461028a5780636e388780146102b55761012a565b806302998cf31461012f5780630f08efe01461014b57806312e8558514610176578063202e3740146101a157806326732b5a146101cc575b600080fd5b61014960048036038101906101449190612a70565b61047c565b005b34801561015757600080fd5b50610160610766565b60405161016d9190612c47565b60405180910390f35b34801561018257600080fd5b5061018b610a24565b6040516101989190612c78565b60405180910390f35b3480156101ad57600080fd5b506101b6610a2e565b6040516101c39190612c47565b60405180910390f35b3480156101d857600080fd5b506101e1610d46565b6040516101ee9190612c78565b60405180910390f35b34801561020357600080fd5b5061021e60048036038101906102199190612c93565b610d52565b60405161022b9190612e34565b60405180910390f35b34801561024057600080fd5b50610249610f1d565b6040516102569190612c47565b60405180910390f35b34801561026b57600080fd5b50610274611235565b6040516102819190612c78565b60405180910390f35b34801561029657600080fd5b5061029f611241565b6040516102ac9190612c78565b60405180910390f35b3480156102c157600080fd5b506102ca61124d565b6040516102d79190612fdd565b60405180910390f35b3480156102ec57600080fd5b506102f56114bc565b005b34801561030357600080fd5b5061030c6114d0565b005b61032860048036038101906103239190612fff565b61161e565b005b34801561033657600080fd5b5061033f611a03565b60405161034c9190613075565b60405180910390f35b61036f600480360381019061036a9190612c93565b611a2d565b005b34801561037d57600080fd5b5061039860048036038101906103939190612c93565b611cdb565b6040516103a5919061316e565b60405180910390f35b6103c860048036038101906103c39190612c93565b611e39565b005b6103e460048036038101906103df9190612c93565b611ec0565b005b3480156103f257600080fd5b5061040d60048036038101906104089190612c93565b612193565b005b34801561041b57600080fd5b5061043660048036038101906104319190612c93565b6123a3565b60405161044a98979695949392919061319f565b60405180910390f35b34801561045f57600080fd5b5061047a6004803603810190610475919061321d565b612458565b005b600082116104bf576040517f08c379a00000000000000000000000000000000000000000000000000000000081526004016104b6906132a7565b60405180910390fd5b609b543414610503576040517f08c379a00000000000000000000000000000000000000000000000000000000081526004016104fa90613339565b60405180910390fd5b600061050f60996124db565b90506040518060c001604052808581526020018373ffffffffffffffffffffffffffffffffffffffff1681526020013373ffffffffffffffffffffffffffffffffffffffff1681526020013073ffffffffffffffffffffffffffffffffffffffff16815260200184815260200160001515815250609c60008381526020019081526020016000206000820151816000015560208201518160010160006101000a81548173ffffffffffffffffffffffffffffffffffffffff021916908373ffffffffffffffffffffffffffffffffffffffff16021790555060408201518160020160006101000a81548173ffffffffffffffffffffffffffffffffffffffff021916908373ffffffffffffffffffffffffffffffffffffffff16021790555060608201518160030160006101000a81548173ffffffffffffffffffffffffffffffffffffffff021916908373ffffffffffffffffffffffffffffffffffffffff1602179055506080820151816004015560a08201518160050160006101000a81548160ff0219169083151502179055509050506106ac60996124e9565b60008290508073ffffffffffffffffffffffffffffffffffffffff166323b872dd3330886040518463ffffffff1660e01b81526004016106ee93929190613359565b600060405180830381600087803b15801561070857600080fd5b505af115801561071c573d6000803e3d6000fd5b50505050847fb640004f1d14576d0c209e240cad0410e0d8c0c33a09375861fbadae2588a98d33308760006040516107579493929190613390565b60405180910390a25050505050565b6060600061077460996124db565b9050600061078260976124db565b61078c60996124db565b6107969190613404565b90506000808267ffffffffffffffff8111156107b5576107b4613438565b5b6040519080825280602002602001820160405280156107ee57816020015b6107db612833565b8152602001906001900390816107d35790505b50905060005b84811015610a19573073ffffffffffffffffffffffffffffffffffffffff16609c60006001846108249190613467565b815260200190815260200160002060030160009054906101000a900473ffffffffffffffffffffffffffffffffffffffff1673ffffffffffffffffffffffffffffffffffffffff1603610a065760006001826108809190613467565b90506000609c60008381526020019081526020016000209050806040518060c0016040529081600082015481526020016001820160009054906101000a900473ffffffffffffffffffffffffffffffffffffffff1673ffffffffffffffffffffffffffffffffffffffff1673ffffffffffffffffffffffffffffffffffffffff1681526020016002820160009054906101000a900473ffffffffffffffffffffffffffffffffffffffff1673ffffffffffffffffffffffffffffffffffffffff1673ffffffffffffffffffffffffffffffffffffffff1681526020016003820160009054906101000a900473ffffffffffffffffffffffffffffffffffffffff1673ffffffffffffffffffffffffffffffffffffffff1673ffffffffffffffffffffffffffffffffffffffff168152602001600482015481526020016005820160009054906101000a900460ff1615151515815250508486815181106109e9576109e861349b565b5b6020026020010181905250600185610a019190613467565b945050505b8080610a11906134ca565b9150506107f4565b508094505050505090565b6000609b54905090565b60606000610a3c60996124db565b905060008060005b83811015610ad8573373ffffffffffffffffffffffffffffffffffffffff16609c600083815260200190815260200160002060030160009054906101000a900473ffffffffffffffffffffffffffffffffffffffff1673ffffffffffffffffffffffffffffffffffffffff1603610ac557600183610ac29190613467565b92505b8080610ad0906134ca565b915050610a44565b5060008267ffffffffffffffff811115610af557610af4613438565b5b604051908082528060200260200182016040528015610b2e57816020015b610b1b612833565b815260200190600190039081610b135790505b50905060005b84811015610d3b573373ffffffffffffffffffffffffffffffffffffffff16609c600083815260200190815260200160002060030160009054906101000a900473ffffffffffffffffffffffffffffffffffffffff1673ffffffffffffffffffffffffffffffffffffffff1603610d28576000609c60008381526020019081526020016000209050806040518060c0016040529081600082015481526020016001820160009054906101000a900473ffffffffffffffffffffffffffffffffffffffff1673ffffffffffffffffffffffffffffffffffffffff1673ffffffffffffffffffffffffffffffffffffffff1681526020016002820160009054906101000a900473ffffffffffffffffffffffffffffffffffffffff1673ffffffffffffffffffffffffffffffffffffffff1673ffffffffffffffffffffffffffffffffffffffff1681526020016003820160009054906101000a900473ffffffffffffffffffffffffffffffffffffffff1673ffffffffffffffffffffffffffffffffffffffff1673ffffffffffffffffffffffffffffffffffffffff168152602001600482015481526020016005820160009054906101000a900460ff161515151581525050838581518110610d0c57610d0b61349b565b5b6020026020010181905250600184610d249190613467565b9350505b8080610d33906134ca565b915050610b34565b508094505050505090565b60988060000154905081565b610d5a6128ad565b609d6000838152602001908152602001600020604051806101200160405290816000820160009054906101000a900473ffffffffffffffffffffffffffffffffffffffff1673ffffffffffffffffffffffffffffffffffffffff1673ffffffffffffffffffffffffffffffffffffffff16815260200160018201548152602001600282015481526020016003820160009054906101000a900473ffffffffffffffffffffffffffffffffffffffff1673ffffffffffffffffffffffffffffffffffffffff1673ffffffffffffffffffffffffffffffffffffffff168152602001600482015481526020016005820160009054906101000a900473ffffffffffffffffffffffffffffffffffffffff1673ffffffffffffffffffffffffffffffffffffffff1673ffffffffffffffffffffffffffffffffffffffff1681526020016005820160149054906101000a900460ff1615151515815260200160068201805480602002602001604051908101604052809291908181526020018280548015610f0357602002820191906000526020600020905b815481526020019060010190808311610eef575b505050505081526020016007820154815250509050919050565b60606000610f2b60996124db565b905060008060005b83811015610fc7573373ffffffffffffffffffffffffffffffffffffffff16609c600083815260200190815260200160002060020160009054906101000a900473ffffffffffffffffffffffffffffffffffffffff1673ffffffffffffffffffffffffffffffffffffffff1603610fb457600183610fb19190613467565b92505b8080610fbf906134ca565b915050610f33565b5060008267ffffffffffffffff811115610fe457610fe3613438565b5b60405190808252806020026020018201604052801561101d57816020015b61100a612833565b8152602001906001900390816110025790505b50905060005b8481101561122a573373ffffffffffffffffffffffffffffffffffffffff16609c600083815260200190815260200160002060020160009054906101000a900473ffffffffffffffffffffffffffffffffffffffff1673ffffffffffffffffffffffffffffffffffffffff1603611217576000609c60008381526020019081526020016000209050806040518060c0016040529081600082015481526020016001820160009054906101000a900473ffffffffffffffffffffffffffffffffffffffff1673ffffffffffffffffffffffffffffffffffffffff1673ffffffffffffffffffffffffffffffffffffffff1681526020016002820160009054906101000a900473ffffffffffffffffffffffffffffffffffffffff1673ffffffffffffffffffffffffffffffffffffffff1673ffffffffffffffffffffffffffffffffffffffff1681526020016003820160009054906101000a900473ffffffffffffffffffffffffffffffffffffffff1673ffffffffffffffffffffffffffffffffffffffff1673ffffffffffffffffffffffffffffffffffffffff168152602001600482015481526020016005820160009054906101000a900460ff1615151515815250508385815181106111fb576111fa61349b565b5b60200260200101819052506001846112139190613467565b9350505b8080611222906134ca565b915050611023565b508094505050505090565b60998060000154905081565b609a8060000154905081565b6060600061125b60986124db565b905060008167ffffffffffffffff81111561127957611278613438565b5b6040519080825280602002602001820160405280156112b257816020015b61129f6128ad565b8152602001906001900390816112975790505b50905060005b828110156114b3576000609d6000838152602001908152602001600020905080604051806101200160405290816000820160009054906101000a900473ffffffffffffffffffffffffffffffffffffffff1673ffffffffffffffffffffffffffffffffffffffff1673ffffffffffffffffffffffffffffffffffffffff16815260200160018201548152602001600282015481526020016003820160009054906101000a900473ffffffffffffffffffffffffffffffffffffffff1673ffffffffffffffffffffffffffffffffffffffff1673ffffffffffffffffffffffffffffffffffffffff168152602001600482015481526020016005820160009054906101000a900473ffffffffffffffffffffffffffffffffffffffff1673ffffffffffffffffffffffffffffffffffffffff1673ffffffffffffffffffffffffffffffffffffffff1681526020016005820160149054906101000a900460ff161515151581526020016006820180548060200260200160405190810160405280929190818152602001828054801561146e57602002820191906000526020600020905b81548152602001906001019080831161145a575b505050505081526020016007820154815250508383815181106114945761149361349b565b5b60200260200101819052505080806114ab906134ca565b9150506112b8565b50809250505090565b6114c46124ff565b6114ce600061257d565b565b60008060019054906101000a900460ff161590508080156115015750600160008054906101000a900460ff1660ff16105b8061152e575061151030612643565b15801561152d5750600160008054906101000a900460ff1660ff16145b5b61156d576040517f08c379a000000000000000000000000000000000000000000000000000000000815260040161156490613584565b60405180910390fd5b60016000806101000a81548160ff021916908360ff16021790555080156115aa576001600060016101000a81548160ff0219169083151502179055505b6115b2612666565b6115ba6126bf565b6000609b81905550801561161b5760008060016101000a81548160ff0219169083151502179055507f7f26b83ff96e1f2b6a682f133852f6798a09c465da95921460cefb3847402498600160405161161291906135f6565b60405180910390a15b50565b60008190503373ffffffffffffffffffffffffffffffffffffffff168173ffffffffffffffffffffffffffffffffffffffff16636352211e876040518263ffffffff1660e01b81526004016116739190612c78565b602060405180830381865afa158015611690573d6000803e3d6000fd5b505050506040513d601f19601f820116820180604052508101906116b49190613626565b73ffffffffffffffffffffffffffffffffffffffff161461170a576040517f08c379a00000000000000000000000000000000000000000000000000000000081526004016117019061369f565b60405180910390fd5b8073ffffffffffffffffffffffffffffffffffffffff166323b872dd3330886040518463ffffffff1660e01b815260040161174793929190613359565b600060405180830381600087803b15801561176157600080fd5b505af1158015611775573d6000803e3d6000fd5b50505050609b5434116117bd576040517f08c379a00000000000000000000000000000000000000000000000000000000081526004016117b490613731565b60405180910390fd5b600083426117cb9190613467565b9050606060006117db60986124db565b90506040518061012001604052808673ffffffffffffffffffffffffffffffffffffffff168152602001898152602001888152602001600073ffffffffffffffffffffffffffffffffffffffff1681526020018481526020013373ffffffffffffffffffffffffffffffffffffffff1681526020016001151581526020018381526020016000815250609d600083815260200190815260200160002060008201518160000160006101000a81548173ffffffffffffffffffffffffffffffffffffffff021916908373ffffffffffffffffffffffffffffffffffffffff160217905550602082015181600101556040820151816002015560608201518160030160006101000a81548173ffffffffffffffffffffffffffffffffffffffff021916908373ffffffffffffffffffffffffffffffffffffffff1602179055506080820151816004015560a08201518160050160006101000a81548173ffffffffffffffffffffffffffffffffffffffff021916908373ffffffffffffffffffffffffffffffffffffffff16021790555060c08201518160050160146101000a81548160ff02191690831515021790555060e08201518160060190805190602001906119a692919061293d565b5061010082015181600701559050506119bf60986124e9565b877f7e4fde823b09bc04caec4c220bd19fe53e0f5608c43a9705668044a7ee8500c888856040516119f1929190613751565b60405180910390a25050505050505050565b6000603360009054906101000a900473ffffffffffffffffffffffffffffffffffffffff16905090565b6000609d6000838152602001908152602001600020905080600401544210611a8a576040517f08c379a0000000000000000000000000000000000000000000000000000000008152600401611a81906137c6565b60405180910390fd5b80600201543411611ad0576040517f08c379a0000000000000000000000000000000000000000000000000000000008152600401611ac790613832565b60405180910390fd5b600073ffffffffffffffffffffffffffffffffffffffff168160030160009054906101000a900473ffffffffffffffffffffffffffffffffffffffff1673ffffffffffffffffffffffffffffffffffffffff1614611b98578060030160009054906101000a900473ffffffffffffffffffffffffffffffffffffffff1673ffffffffffffffffffffffffffffffffffffffff166108fc82600201549081150290604051600060405180830381858888f19350505050158015611b96573d6000803e3d6000fd5b505b348160020181905550338160030160006101000a81548173ffffffffffffffffffffffffffffffffffffffff021916908373ffffffffffffffffffffffffffffffffffffffff16021790555060405180604001604052803373ffffffffffffffffffffffffffffffffffffffff16815260200134815250609e6000611c1d609a6124db565b815260200190815260200160002060008201518160000160006101000a81548173ffffffffffffffffffffffffffffffffffffffff021916908373ffffffffffffffffffffffffffffffffffffffff16021790555060208201518160010155905050611c89609a6124db565b81600601826007015481548110611ca357611ca261349b565b5b9060005260206000200181905550611cbb609a6124e9565b6001816007016000828254611cd09190613467565b925050819055505050565b60606000609d600084815260200190815260200160002090506000816007015467ffffffffffffffff811115611d1457611d13613438565b5b604051908082528060200260200182016040528015611d4d57816020015b611d3a61298a565b815260200190600190039081611d325790505b50905060005b8260070154811015611e2e57609e6000846006018381548110611d7957611d7861349b565b5b906000526020600020015481526020019081526020016000206040518060400160405290816000820160009054906101000a900473ffffffffffffffffffffffffffffffffffffffff1673ffffffffffffffffffffffffffffffffffffffff1673ffffffffffffffffffffffffffffffffffffffff168152602001600182015481525050828281518110611e1057611e0f61349b565b5b60200260200101819052508080611e26906134ca565b915050611d53565b508092505050919050565b611e416124ff565b3373ffffffffffffffffffffffffffffffffffffffff16611e60611a03565b73ffffffffffffffffffffffffffffffffffffffff1614611eb6576040517f08c379a0000000000000000000000000000000000000000000000000000000008152600401611ead906138c4565b60405180910390fd5b80609b8190555050565b6000609c6000838152602001908152602001600020600401549050803414611f1d576040517f08c379a0000000000000000000000000000000000000000000000000000000008152600401611f1490613956565b60405180910390fd5b33609c600084815260200190815260200160002060030160006101000a81548173ffffffffffffffffffffffffffffffffffffffff021916908373ffffffffffffffffffffffffffffffffffffffff1602179055506001609c600084815260200190815260200160002060050160006101000a81548160ff0219169083151502179055506000609c600084815260200190815260200160002060020160006101000a81548173ffffffffffffffffffffffffffffffffffffffff021916908373ffffffffffffffffffffffffffffffffffffffff16021790555061200160976124e9565b6000609c600084815260200190815260200160002060010160009054906101000a900473ffffffffffffffffffffffffffffffffffffffff1690508073ffffffffffffffffffffffffffffffffffffffff166323b872dd3033609c6000888152602001908152602001600020600001546040518463ffffffff1660e01b815260040161208f93929190613359565b600060405180830381600087803b1580156120a957600080fd5b505af11580156120bd573d6000803e3d6000fd5b505050506120c9611a03565b73ffffffffffffffffffffffffffffffffffffffff166108fc609b549081150290604051600060405180830381858888f19350505050158015612110573d6000803e3d6000fd5b50609c600084815260200190815260200160002060020160009054906101000a900473ffffffffffffffffffffffffffffffffffffffff1673ffffffffffffffffffffffffffffffffffffffff166108fc349081150290604051600060405180830381858888f1935050505015801561218d573d6000803e3d6000fd5b50505050565b61219b612718565b6000609d6000838152602001908152602001600020905080600401544210156121f9576040517f08c379a00000000000000000000000000000000000000000000000000000000081526004016121f0906139c2565b60405180910390fd5b8060050160149054906101000a900460ff1661224a576040517f08c379a000000000000000000000000000000000000000000000000000000000815260040161224190613a2e565b60405180910390fd5b60008160050160146101000a81548160ff02191690831515021790555060008160000160009054906101000a900473ffffffffffffffffffffffffffffffffffffffff1690508073ffffffffffffffffffffffffffffffffffffffff166323b872dd308460030160009054906101000a900473ffffffffffffffffffffffffffffffffffffffff1685600101546040518463ffffffff1660e01b81526004016122f593929190613359565b600060405180830381600087803b15801561230f57600080fd5b505af1158015612323573d6000803e3d6000fd5b505050508160050160009054906101000a900473ffffffffffffffffffffffffffffffffffffffff1673ffffffffffffffffffffffffffffffffffffffff166108fc83600201549081150290604051600060405180830381858888f19350505050158015612395573d6000803e3d6000fd5b5050506123a0612767565b50565b609d6020528060005260406000206000915090508060000160009054906101000a900473ffffffffffffffffffffffffffffffffffffffff16908060010154908060020154908060030160009054906101000a900473ffffffffffffffffffffffffffffffffffffffff16908060040154908060050160009054906101000a900473ffffffffffffffffffffffffffffffffffffffff16908060050160149054906101000a900460ff16908060070154905088565b6124606124ff565b600073ffffffffffffffffffffffffffffffffffffffff168173ffffffffffffffffffffffffffffffffffffffff16036124cf576040517f08c379a00000000000000000000000000000000000000000000000000000000081526004016124c690613ac0565b60405180910390fd5b6124d88161257d565b50565b600081600001549050919050565b6001816000016000828254019250508190555050565b612507612771565b73ffffffffffffffffffffffffffffffffffffffff16612525611a03565b73ffffffffffffffffffffffffffffffffffffffff161461257b576040517f08c379a000000000000000000000000000000000000000000000000000000000815260040161257290613b2c565b60405180910390fd5b565b6000603360009054906101000a900473ffffffffffffffffffffffffffffffffffffffff16905081603360006101000a81548173ffffffffffffffffffffffffffffffffffffffff021916908373ffffffffffffffffffffffffffffffffffffffff1602179055508173ffffffffffffffffffffffffffffffffffffffff168173ffffffffffffffffffffffffffffffffffffffff167f8be0079c531659141344cd1fd0a4f28419497f9722a3daafe3b4186f6b6457e060405160405180910390a35050565b6000808273ffffffffffffffffffffffffffffffffffffffff163b119050919050565b600060019054906101000a900460ff166126b5576040517f08c379a00000000000000000000000000000000000000000000000000000000081526004016126ac90613bbe565b60405180910390fd5b6126bd612779565b565b600060019054906101000a900460ff1661270e576040517f08c379a000000000000000000000000000000000000000000000000000000000815260040161270590613bbe565b60405180910390fd5b6127166127da565b565b60026065540361275d576040517f08c379a000000000000000000000000000000000000000000000000000000000815260040161275490613c2a565b60405180910390fd5b6002606581905550565b6001606581905550565b600033905090565b600060019054906101000a900460ff166127c8576040517f08c379a00000000000000000000000000000000000000000000000000000000081526004016127bf90613bbe565b60405180910390fd5b6127d86127d3612771565b61257d565b565b600060019054906101000a900460ff16612829576040517f08c379a000000000000000000000000000000000000000000000000000000000815260040161282090613bbe565b60405180910390fd5b6001606581905550565b6040518060c0016040528060008152602001600073ffffffffffffffffffffffffffffffffffffffff168152602001600073ffffffffffffffffffffffffffffffffffffffff168152602001600073ffffffffffffffffffffffffffffffffffffffff168152602001600081526020016000151581525090565b604051806101200160405280600073ffffffffffffffffffffffffffffffffffffffff1681526020016000815260200160008152602001600073ffffffffffffffffffffffffffffffffffffffff16815260200160008152602001600073ffffffffffffffffffffffffffffffffffffffff16815260200160001515815260200160608152602001600081525090565b828054828255906000526020600020908101928215612979579160200282015b8281111561297857825182559160200191906001019061295d565b5b50905061298691906129ba565b5090565b6040518060400160405280600073ffffffffffffffffffffffffffffffffffffffff168152602001600081525090565b5b808211156129d35760008160009055506001016129bb565b5090565b600080fd5b6000819050919050565b6129ef816129dc565b81146129fa57600080fd5b50565b600081359050612a0c816129e6565b92915050565b600073ffffffffffffffffffffffffffffffffffffffff82169050919050565b6000612a3d82612a12565b9050919050565b612a4d81612a32565b8114612a5857600080fd5b50565b600081359050612a6a81612a44565b92915050565b600080600060608486031215612a8957612a886129d7565b5b6000612a97868287016129fd565b9350506020612aa8868287016129fd565b9250506040612ab986828701612a5b565b9150509250925092565b600081519050919050565b600082825260208201905092915050565b6000819050602082019050919050565b612af8816129dc565b82525050565b612b0781612a32565b82525050565b6000612b1882612a12565b9050919050565b612b2881612b0d565b82525050565b60008115159050919050565b612b4381612b2e565b82525050565b60c082016000820151612b5f6000850182612aef565b506020820151612b726020850182612afe565b506040820151612b856040850182612b1f565b506060820151612b986060850182612b1f565b506080820151612bab6080850182612aef565b5060a0820151612bbe60a0850182612b3a565b50505050565b6000612bd08383612b49565b60c08301905092915050565b6000602082019050919050565b6000612bf482612ac3565b612bfe8185612ace565b9350612c0983612adf565b8060005b83811015612c3a578151612c218882612bc4565b9750612c2c83612bdc565b925050600181019050612c0d565b5085935050505092915050565b60006020820190508181036000830152612c618184612be9565b905092915050565b612c72816129dc565b82525050565b6000602082019050612c8d6000830184612c69565b92915050565b600060208284031215612ca957612ca86129d7565b5b6000612cb7848285016129fd565b91505092915050565b600081519050919050565b600082825260208201905092915050565b6000819050602082019050919050565b6000612cf88383612aef565b60208301905092915050565b6000602082019050919050565b6000612d1c82612cc0565b612d268185612ccb565b9350612d3183612cdc565b8060005b83811015612d62578151612d498882612cec565b9750612d5483612d04565b925050600181019050612d35565b5085935050505092915050565b600061012083016000830151612d886000860182612afe565b506020830151612d9b6020860182612aef565b506040830151612dae6040860182612aef565b506060830151612dc16060860182612afe565b506080830151612dd46080860182612aef565b5060a0830151612de760a0860182612afe565b5060c0830151612dfa60c0860182612b3a565b5060e083015184820360e0860152612e128282612d11565b915050610100830151612e29610100860182612aef565b508091505092915050565b60006020820190508181036000830152612e4e8184612d6f565b905092915050565b600081519050919050565b600082825260208201905092915050565b6000819050602082019050919050565b600061012083016000830151612e9b6000860182612afe565b506020830151612eae6020860182612aef565b506040830151612ec16040860182612aef565b506060830151612ed46060860182612afe565b506080830151612ee76080860182612aef565b5060a0830151612efa60a0860182612afe565b5060c0830151612f0d60c0860182612b3a565b5060e083015184820360e0860152612f258282612d11565b915050610100830151612f3c610100860182612aef565b508091505092915050565b6000612f538383612e82565b905092915050565b6000602082019050919050565b6000612f7382612e56565b612f7d8185612e61565b935083602082028501612f8f85612e72565b8060005b85811015612fcb5784840389528151612fac8582612f47565b9450612fb783612f5b565b925060208a01995050600181019050612f93565b50829750879550505050505092915050565b60006020820190508181036000830152612ff78184612f68565b905092915050565b60008060008060808587031215613019576130186129d7565b5b6000613027878288016129fd565b9450506020613038878288016129fd565b9350506040613049878288016129fd565b925050606061305a87828801612a5b565b91505092959194509250565b61306f81612a32565b82525050565b600060208201905061308a6000830184613066565b92915050565b600081519050919050565b600082825260208201905092915050565b6000819050602082019050919050565b6040820160008201516130d26000850182612afe565b5060208201516130e56020850182612aef565b50505050565b60006130f783836130bc565b60408301905092915050565b6000602082019050919050565b600061311b82613090565b613125818561309b565b9350613130836130ac565b8060005b8381101561316157815161314888826130eb565b975061315383613103565b925050600181019050613134565b5085935050505092915050565b600060208201905081810360008301526131888184613110565b905092915050565b61319981612b2e565b82525050565b6000610100820190506131b5600083018b613066565b6131c2602083018a612c69565b6131cf6040830189612c69565b6131dc6060830188613066565b6131e96080830187612c69565b6131f660a0830186613066565b61320360c0830185613190565b61321060e0830184612c69565b9998505050505050505050565b600060208284031215613233576132326129d7565b5b600061324184828501612a5b565b91505092915050565b600082825260208201905092915050565b7f5072696365206d757374206265206174206c6561737420312077656900000000600082015250565b6000613291601c8361324a565b915061329c8261325b565b602082019050919050565b600060208201905081810360008301526132c081613284565b9050919050565b7f5072696365206d75737420626520657175616c20746f206c697374696e67207060008201527f7269636500000000000000000000000000000000000000000000000000000000602082015250565b600061332360248361324a565b915061332e826132c7565b604082019050919050565b6000602082019050818103600083015261335281613316565b9050919050565b600060608201905061336e6000830186613066565b61337b6020830185613066565b6133886040830184612c69565b949350505050565b60006080820190506133a56000830187613066565b6133b26020830186613066565b6133bf6040830185612c69565b6133cc6060830184613190565b95945050505050565b7f4e487b7100000000000000000000000000000000000000000000000000000000600052601160045260246000fd5b600061340f826129dc565b915061341a836129dc565b9250828203905081811115613432576134316133d5565b5b92915050565b7f4e487b7100000000000000000000000000000000000000000000000000000000600052604160045260246000fd5b6000613472826129dc565b915061347d836129dc565b9250828201905080821115613495576134946133d5565b5b92915050565b7f4e487b7100000000000000000000000000000000000000000000000000000000600052603260045260246000fd5b60006134d5826129dc565b91507fffffffffffffffffffffffffffffffffffffffffffffffffffffffffffffffff8203613507576135066133d5565b5b600182019050919050565b7f496e697469616c697a61626c653a20636f6e747261637420697320616c72656160008201527f647920696e697469616c697a6564000000000000000000000000000000000000602082015250565b600061356e602e8361324a565b915061357982613512565b604082019050919050565b6000602082019050818103600083015261359d81613561565b9050919050565b6000819050919050565b600060ff82169050919050565b6000819050919050565b60006135e06135db6135d6846135a4565b6135bb565b6135ae565b9050919050565b6135f0816135c5565b82525050565b600060208201905061360b60008301846135e7565b92915050565b60008151905061362081612a44565b92915050565b60006020828403121561363c5761363b6129d7565b5b600061364a84828501613611565b91505092915050565b7f4e6f7420746865206f776e657200000000000000000000000000000000000000600082015250565b6000613689600d8361324a565b915061369482613653565b602082019050919050565b600060208201905081810360008301526136b88161367c565b9050919050565b7f5374617274696e6720626964206d75737420626520677265617465722074686160008201527f6e20300000000000000000000000000000000000000000000000000000000000602082015250565b600061371b60238361324a565b9150613726826136bf565b604082019050919050565b6000602082019050818103600083015261374a8161370e565b9050919050565b60006040820190506137666000830185612c69565b6137736020830184612c69565b9392505050565b7f41756374696f6e20656e64656400000000000000000000000000000000000000600082015250565b60006137b0600d8361324a565b91506137bb8261377a565b602082019050919050565b600060208201905081810360008301526137df816137a3565b9050919050565b7f42696420746f6f206c6f77000000000000000000000000000000000000000000600082015250565b600061381c600b8361324a565b9150613827826137e6565b602082019050919050565b6000602082019050818103600083015261384b8161380f565b9050919050565b7f4f6e6c79206d61726b6574706c616365206f776e65722063616e20757064617460008201527f65206c697374696e672070726963652e00000000000000000000000000000000602082015250565b60006138ae60308361324a565b91506138b982613852565b604082019050919050565b600060208201905081810360008301526138dd816138a1565b9050919050565b7f506c65617365207375626d6974207468652061736b696e67207072696365206960008201527f6e206f7264657220746f20636f6d706c65746520746865207075726368617365602082015250565b600061394060408361324a565b915061394b826138e4565b604082019050919050565b6000602082019050818103600083015261396f81613933565b9050919050565b7f41756374696f6e206e6f742079657420656e6465640000000000000000000000600082015250565b60006139ac60158361324a565b91506139b782613976565b602082019050919050565b600060208201905081810360008301526139db8161399f565b9050919050565b7f41756374696f6e206e6f74206163746976650000000000000000000000000000600082015250565b6000613a1860128361324a565b9150613a23826139e2565b602082019050919050565b60006020820190508181036000830152613a4781613a0b565b9050919050565b7f4f776e61626c653a206e6577206f776e657220697320746865207a65726f206160008201527f6464726573730000000000000000000000000000000000000000000000000000602082015250565b6000613aaa60268361324a565b9150613ab582613a4e565b604082019050919050565b60006020820190508181036000830152613ad981613a9d565b9050919050565b7f4f776e61626c653a2063616c6c6572206973206e6f7420746865206f776e6572600082015250565b6000613b1660208361324a565b9150613b2182613ae0565b602082019050919050565b60006020820190508181036000830152613b4581613b09565b9050919050565b7f496e697469616c697a61626c653a20636f6e7472616374206973206e6f74206960008201527f6e697469616c697a696e67000000000000000000000000000000000000000000602082015250565b6000613ba8602b8361324a565b9150613bb382613b4c565b604082019050919050565b60006020820190508181036000830152613bd781613b9b565b9050919050565b7f5265656e7472616e637947756172643a207265656e7472616e742063616c6c00600082015250565b6000613c14601f8361324a565b9150613c1f82613bde565b602082019050919050565b60006020820190508181036000830152613c4381613c07565b905091905056fea2646970667358221220d06c1dcfaf98a694c9d29ca21c8e84cd934f8ef33b740750404419940f11926a64736f6c63430008120033",
	"linkReferences": {},
	"deployedLinkReferences": {}
}